{
  "contractName": "FundAndDistributeFactory",
  "abi": [
    {
      "anonymous": false,
      "inputs": [
        {
          "indexed": false,
          "name": "addr",
          "type": "address"
        }
      ],
      "name": "NewFundAndDistribute",
      "type": "event"
    },
    {
      "constant": false,
      "inputs": [
        {
          "name": "_gt_token",
          "type": "address"
        },
        {
          "name": "_name",
          "type": "string"
        },
        {
          "name": "_desc",
          "type": "string"
        },
        {
          "name": "_token_contract",
          "type": "address"
        },
        {
          "name": "_multisig",
          "type": "address"
        },
        {
          "name": "_tlist",
          "type": "address"
        }
      ],
      "name": "createStdERC20TokenIssuer",
      "outputs": [
        {
          "name": "",
          "type": "address"
        }
      ],
      "payable": false,
      "stateMutability": "nonpayable",
      "type": "function"
    }
  ],
  "bytecode": "0x608060405234801561001057600080fd5b50612c28806100206000396000f3fe608060405234801561001057600080fd5b506004361061002b5760003560e01c8063f4f2589714610030575b600080fd5b610187600480360360c081101561004657600080fd5b6001600160a01b03823516919081019060408101602082013564010000000081111561007157600080fd5b82018360208201111561008357600080fd5b803590602001918460018302840111640100000000831117156100a557600080fd5b91908080601f01602080910402602001604051908101604052809392919081815260200183838082843760009201919091525092959493602081019350359150506401000000008111156100f857600080fd5b82018360208201111561010a57600080fd5b8035906020019184600183028401116401000000008311171561012c57600080fd5b91908080601f016020809104026020016040519081016040528093929190818152602001838380828437600092019190915250929550506001600160a01b038335811694506020840135811693604001351691506101a39050565b604080516001600160a01b039092168252519081900360200190f35b6000808787878787876040516101b89061031d565b6001600160a01b03808816825284811660608301528381166080830152821660a082015260c060208083018281528851928401929092528751604084019160e0850191908a019080838360005b8381101561021d578181015183820152602001610205565b50505050905090810190601f16801561024a5780820380516001836020036101000a031916815260200191505b50838103825287518152875160209182019189019080838360005b8381101561027d578181015183820152602001610265565b50505050905090810190601f1680156102aa5780820380516001836020036101000a031916815260200191505b5098505050505050505050604051809103906000f0801580156102d1573d6000803e3d6000fd5b50604080516001600160a01b038316815290519192507f41b27e736a10239fa419e101cf4ad27601e488d3aa86da85a30e58ccb77d61a4919081900360200190a1979650505050505050565b6128c98061032b8339019056fe60806040523480156200001157600080fd5b50604051620028c9380380620028c9833981810160405260c08110156200003757600080fd5b8151602083018051919392830192916401000000008111156200005957600080fd5b820160208101848111156200006d57600080fd5b81516401000000008111828201871017156200008857600080fd5b50509291906020018051640100000000811115620000a557600080fd5b82016020810184811115620000b957600080fd5b8151640100000000811182820187101715620000d457600080fd5b505060208201516040830151606090930151919450925080826001600160a01b0381166200010157600080fd5b600080546001600160a01b0319166001600160a01b0392831617905581166200012957600080fd5b600180546001600160a01b03199081166001600160a01b03938416179091556007805490911691881691909117905584516200016d906002906020880190620001c8565b50835162000183906003906020870190620001c8565b5050600480546001600160a01b0319166001600160a01b03939093169290921790915550506103e8600555505060146006556007805460ff60a01b191690556200026d565b828054600181600116156101000203166002900490600052602060002090601f016020900481019282601f106200020b57805160ff19168380011785556200023b565b828001600101855582156200023b579182015b828111156200023b5782518255916020019190600101906200021e565b50620002499291506200024d565b5090565b6200026a91905b8082111562000249576000815560010162000254565b90565b61264c806200027d6000396000f3fe608060405234801561001057600080fd5b50600436106101165760003560e01c806355f150f1116100a2578063869bf1a211610071578063869bf1a21461031e5780639563dceb14610326578063b69ef8a81461032e578063ca1d209d14610336578063d15dcd621461035357610116565b806355f150f1146102df5780635c975abb146102e757806369a5856f146102ef5780636ce5edff1461031657610116565b806310cb818c116100e957806310cb818c146102235780633cadcb671461025957806343b826b014610273578063528fd9011461027b57806353556559146102ae57610116565b80630357e3701461011b57806306fdde03146101445780630c3129fe146101c15780630f560cd7146101ff575b600080fd5b6101426004803603602081101561013157600080fd5b503567ffffffffffffffff1661038f565b005b61014c6105de565b6040805160208082528351818301528351919283929083019185019080838360005b8381101561018657818101518382015260200161016e565b50505050905090810190601f1680156101b35780820380516001836020036101000a031916815260200191505b509250505060405180910390f35b610142600480360360608110156101d757600080fd5b5067ffffffffffffffff813516906001600160a01b0360208201358116916040013516610669565b6102076108b9565b604080516001600160a01b039092168252519081900360200190f35b6101426004803603604081101561023957600080fd5b50803567ffffffffffffffff1690602001356001600160a01b03166108c8565b610261610b84565b60408051918252519081900360200190f35b610261610b8a565b6101426004803603606081101561029157600080fd5b5067ffffffffffffffff8135169060208101359060400135610b90565b6102cb600480360360208110156102c457600080fd5b5035610df2565b604080519115158252519081900360200190f35b61014c610f84565b6102cb610fdf565b6101426004803603602081101561030557600080fd5b503567ffffffffffffffff16610fef565b610207611239565b610207611248565b610207611257565b610261611266565b6102cb6004803603602081101561034c57600080fd5b50356112e7565b6102cb6004803603606081101561036957600080fd5b5067ffffffffffffffff813516906001600160a01b03602082013516906040013561174c565b60005460408051629764fd60e61b815233600482015290516001600160a01b03909216916325d93f4091602480820192602092909190829003018186803b1580156103d957600080fd5b505afa1580156103ed573d6000803e3d6000fd5b505050506040513d602081101561040357600080fd5b50516104405760405162461bcd60e51b81526004018080602001828103825260278152602001806125c06027913960400191505060405180910390fd5b8060405180604001604052806005815260200164706175736560d81b815250600080356001600160e01b03191660003660405160200180846001600160e01b0319166001600160e01b03191681526004018383808284376040805191909301818103601f190182529283905280516020918201206000805463d253eced60e01b865267ffffffffffffffff8d16600487019081526044870184905233606488018190526080602489019081528e5160848a01528e51959d506001600160a01b039093169b5063d253eced9a508e99508d98508c979096509094919360a490910192918801918190849084905b8381101561054457818101518382015260200161052c565b50505050905090810190601f1680156105715780820380516001836020036101000a031916815260200191505b5095505050505050602060405180830381600087803b15801561059357600080fd5b505af11580156105a7573d6000803e3d6000fd5b505050506040513d60208110156105bd57600080fd5b5051156105d8576007805460ff60a01b1916600160a01b1790555b50505050565b6002805460408051602060018416156101000260001901909316849004601f810184900484028201840190925281815292918301828280156106615780601f1061063657610100808354040283529160200191610661565b820191906000526020600020905b81548152906001019060200180831161064457829003601f168201915b505050505081565b60005460408051629764fd60e61b815233600482015290516001600160a01b03909216916325d93f4091602480820192602092909190829003018186803b1580156106b357600080fd5b505afa1580156106c7573d6000803e3d6000fd5b505050506040513d60208110156106dd57600080fd5b505161071a5760405162461bcd60e51b81526004018080602001828103825260278152602001806125c06027913960400191505060405180910390fd5b826040518060400160405280600e81526020016d636c61696d537464546f6b656e7360901b815250600080356001600160e01b03191660003660405160200180846001600160e01b0319166001600160e01b03191681526004018383808284376040805191909301818103601f190182529283905280516020918201206000805463d253eced60e01b865267ffffffffffffffff8d16600487019081526044870184905233606488018190526080602489019081528e5160848a01528e51959d506001600160a01b039093169b5063d253eced9a508e99508d98508c979096509094919360a490910192918801918190849084905b8381101561082757818101518382015260200161080f565b50505050905090810190601f1680156108545780820380516001836020036101000a031916815260200191505b5095505050505050602060405180830381600087803b15801561087657600080fd5b505af115801561088a573d6000803e3d6000fd5b505050506040513d60208110156108a057600080fd5b5051156108b1576108b18585611a1a565b505050505050565b6001546001600160a01b031681565b60005460408051629764fd60e61b815233600482015290516001600160a01b03909216916325d93f4091602480820192602092909190829003018186803b15801561091257600080fd5b505afa158015610926573d6000803e3d6000fd5b505050506040513d602081101561093c57600080fd5b50516109795760405162461bcd60e51b81526004018080602001828103825260278152602001806125c06027913960400191505060405180910390fd5b81604051806040016040528060118152602001707472616e736665725f6d756c746973696760781b815250600080356001600160e01b03191660003660405160200180846001600160e01b0319166001600160e01b03191681526004018383808284376040805191909301818103601f190182529283905280516020918201206000805463d253eced60e01b865267ffffffffffffffff8d16600487019081526044870184905233606488018190526080602489019081528e5160848a01528e51959d506001600160a01b039093169b5063d253eced9a508e99508d98508c979096509094919360a490910192918801918190849084905b83811015610a89578181015183820152602001610a71565b50505050905090810190601f168015610ab65780820380516001836020036101000a031916815260200191505b5095505050505050602060405180830381600087803b158015610ad857600080fd5b505af1158015610aec573d6000803e3d6000fd5b505050506040513d6020811015610b0257600080fd5b505115610b7d576001600160a01b038416610b1c57600080fd5b600080546001600160a01b038681166001600160a01b0319831681179093556040805191909216808252602082019390935281517fd30bbf8c51d656e1f0bad4c64bc25c133cb2e626cf2791746b0f083b38ea3fdd929181900390910190a1505b5050505050565b60065481565b60055481565b60005460408051629764fd60e61b815233600482015290516001600160a01b03909216916325d93f4091602480820192602092909190829003018186803b158015610bda57600080fd5b505afa158015610bee573d6000803e3d6000fd5b505050506040513d6020811015610c0457600080fd5b5051610c415760405162461bcd60e51b81526004018080602001828103825260278152602001806125c06027913960400191505060405180910390fd5b82604051806040016040528060098152602001687365745f706172616d60b81b815250600080356001600160e01b03191660003660405160200180846001600160e01b0319166001600160e01b03191681526004018383808284376040805191909301818103601f190182529283905280516020918201206000805463d253eced60e01b865267ffffffffffffffff8d16600487019081526044870184905233606488018190526080602489019081528e5160848a01528e51959d506001600160a01b039093169b5063d253eced9a508e99508d98508c979096509094919360a490910192918801918190849084905b83811015610d49578181015183820152602001610d31565b50505050905090810190601f168015610d765780820380516001836020036101000a031916815260200191505b5095505050505050602060405180830381600087803b158015610d9857600080fd5b505af1158015610dac573d6000803e3d6000fd5b505050506040513d6020811015610dc257600080fd5b5051156108b15760008511610dd657600080fd5b60008411610de357600080fd5b50505060059190915560065550565b600754600090600160a01b900460ff1615610e49576040805162461bcd60e51b81526020600482015260126024820152711c995c5d5a5c99481b9bdd081c185d5cd95960721b604482015290519081900360640190fd5b6000610e5483611c57565b90508015610f7b5760045460408051336024820152604480820185905282518083039091018152606490910182526020810180516001600160e01b031663a9059cbb60e01b178152915181516000946001600160a01b03169382918083835b60208310610ed25780518252601f199092019160209182019101610eb3565b6001836020036101000a0380198251168184511680821785525050505050509050019150506000604051808303816000865af19150503d8060008114610f34576040519150601f19603f3d011682016040523d82523d6000602084013e610f39565b606091505b5050905080610f795760405162461bcd60e51b81526004018080602001828103825260318152602001806125e76031913960400191505060405180910390fd5b505b50600192915050565b6003805460408051602060026001851615610100026000190190941693909304601f810184900484028201840190925281815292918301828280156106615780601f1061063657610100808354040283529160200191610661565b600754600160a01b900460ff1681565b60005460408051629764fd60e61b815233600482015290516001600160a01b03909216916325d93f4091602480820192602092909190829003018186803b15801561103957600080fd5b505afa15801561104d573d6000803e3d6000fd5b505050506040513d602081101561106357600080fd5b50516110a05760405162461bcd60e51b81526004018080602001828103825260278152602001806125c06027913960400191505060405180910390fd5b8060405180604001604052806007815260200166756e706175736560c81b815250600080356001600160e01b03191660003660405160200180846001600160e01b0319166001600160e01b03191681526004018383808284376040805191909301818103601f190182529283905280516020918201206000805463d253eced60e01b865267ffffffffffffffff8d16600487019081526044870184905233606488018190526080602489019081528e5160848a01528e51959d506001600160a01b039093169b5063d253eced9a508e99508d98508c979096509094919360a490910192918801918190849084905b838110156111a657818101518382015260200161118e565b50505050905090810190601f1680156111d35780820380516001836020036101000a031916815260200191505b5095505050505050602060405180830381600087803b1580156111f557600080fd5b505af1158015611209573d6000803e3d6000fd5b505050506040513d602081101561121f57600080fd5b5051156105d8576007805460ff60a01b1916905550505050565b6000546001600160a01b031681565b6007546001600160a01b031681565b6004546001600160a01b031681565b600754604080516370a0823160e01b815230600482015290516000926001600160a01b03169182916370a082319160248082019260209290919082900301818887803b1580156112b557600080fd5b505af11580156112c9573d6000803e3d6000fd5b505050506040513d60208110156112df57600080fd5b505191505090565b600754600090600160a01b900460ff161561133e576040805162461bcd60e51b81526020600482015260126024820152711c995c5d5a5c99481b9bdd081c185d5cd95960721b604482015290519081900360640190fd5b60015460408051632153522560e11b81523360048201819052915191926001600160a01b0316916342a6a44a916024808201926020929091908290030181600087803b15801561138d57600080fd5b505af11580156113a1573d6000803e3d6000fd5b505050506040513d60208110156113b757600080fd5b5051611401576040805162461bcd60e51b81526020600482015260146024820152733737ba1030903a393ab9ba32b21034b9b9bab2b960611b604482015290519081900360640190fd5b6000831161144b576040805162461bcd60e51b8152602060048201526012602482015271066756e642073686f756c64206265203e20360741b604482015290519081900360640190fd5b60048054604080516370a0823160e01b81523093810193909352516001600160a01b039091169160009183916370a0823191602480830192602092919082900301818787803b15801561149d57600080fd5b505af11580156114b1573d6000803e3d6000fd5b505050506040513d60208110156114c757600080fd5b50516004546040805133602482015230604482015260648082018a905282518083039091018152608490910182526020810180516001600160e01b03166323b872dd60e01b178152915181519495506000946001600160a01b0390941693919290918291908083835b6020831061154f5780518252601f199092019160209182019101611530565b6001836020036101000a0380198251168184511680821785525050505050509050019150506000604051808303816000865af19150503d80600081146115b1576040519150601f19603f3d011682016040523d82523d6000602084013e6115b6565b606091505b50509050806115f65760405162461bcd60e51b81526004018080602001828103825260318152602001806125e76031913960400191505060405180910390fd5b604080516370a0823160e01b815230600482015290516000916001600160a01b038616916370a082319160248082019260209290919082900301818787803b15801561164157600080fd5b505af1158015611655573d6000803e3d6000fd5b505050506040513d602081101561166b57600080fd5b5051905082870181146116af5760405162461bcd60e51b815260040180806020018281038252602b815260200180612595602b913960400191505060405180910390fd5b60006116ba88612208565b9050801561173e576040805163a9059cbb60e01b81523360048201526024810183905290516001600160a01b0387169163a9059cbb9160448083019260209291908290030181600087803b15801561171157600080fd5b505af1158015611725573d6000803e3d6000fd5b505050506040513d602081101561173b57600080fd5b50505b506001979650505050505050565b6000805460408051629764fd60e61b815233600482015290516001600160a01b03909216916325d93f4091602480820192602092909190829003018186803b15801561179757600080fd5b505afa1580156117ab573d6000803e3d6000fd5b505050506040513d60208110156117c157600080fd5b50516117fe5760405162461bcd60e51b81526004018080602001828103825260278152602001806125c06027913960400191505060405180910390fd5b83604051806040016040528060088152602001673a3930b739b332b960c11b815250600080356001600160e01b03191660003660405160200180846001600160e01b0319166001600160e01b03191681526004018383808284376040805191909301818103601f190182529283905280516020918201206000805463d253eced60e01b865267ffffffffffffffff8d16600487019081526044870184905233606488018190526080602489019081528e5160848a01528e51959d506001600160a01b039093169b5063d253eced9a508e99508d98508c979096509094919360a490910192918801918190849084905b838110156119055781810151838201526020016118ed565b50505050905090810190601f1680156119325780820380516001836020036101000a031916815260200191505b5095505050505050602060405180830381600087803b15801561195457600080fd5b505af1158015611968573d6000803e3d6000fd5b505050506040513d602081101561197e57600080fd5b505115611a10576007546040805163a9059cbb60e01b81526001600160a01b0389811660048301526024820189905291519190921691829163a9059cbb916044808201926020929091908290030181600087803b1580156119de57600080fd5b505af11580156119f2573d6000803e3d6000fd5b505050506040513d6020811015611a0857600080fd5b506001955050505b5050509392505050565b6001600160a01b038216611a64576040516001600160a01b03821690303180156108fc02916000818181858888f19350505050158015611a5e573d6000803e3d6000fd5b50611c53565b604080516370a0823160e01b8152306004820152905183916000916001600160a01b038416916370a0823191602480830192602092919082900301818787803b158015611ab057600080fd5b505af1158015611ac4573d6000803e3d6000fd5b505050506040513d6020811015611ada57600080fd5b5051604080516001600160a01b038681166024830152604480830185905283518084039091018152606490920183526020820180516001600160e01b031663a9059cbb60e01b178152925182519495506000949189169390918291908083835b60208310611b595780518252601f199092019160209182019101611b3a565b6001836020036101000a0380198251168184511680821785525050505050509050019150506000604051808303816000865af19150503d8060008114611bbb576040519150601f19603f3d011682016040523d82523d6000602084013e611bc0565b606091505b5050905080611c04576040805162461bcd60e51b815260206004820152600b60248201526a18d85b1b0819985a5b195960aa1b604482015290519081900360640190fd5b836001600160a01b0316856001600160a01b03167ff931edb47c50b4b4104c187b5814a9aef5f709e17e2ecf9617e860cacade929c846040518082815260200191505060405180910390a35050505b5050565b6000808211611ca2576040805162461bcd60e51b8152602060048201526012602482015271066756e642073686f756c64206265203e20360741b604482015290519081900360640190fd5b600754604080516370a0823160e01b815233600482015290516001600160a01b039092169160009183916370a082319160248082019260209290919082900301818787803b158015611cf357600080fd5b505af1158015611d07573d6000803e3d6000fd5b505050506040513d6020811015611d1d57600080fd5b5051905083811015611d69576040805162461bcd60e51b815260206004820152601060248201526f1b9bdd08195b9bdd59da08185b5bdd5d60821b604482015290519081900360640190fd5b600073__SafeMath______________________________63b5931f7c866103e86040518363ffffffff1660e01b8152600401808381526020018281526020019250505060206040518083038186803b158015611dc457600080fd5b505af4158015611dd8573d6000803e3d6000fd5b505050506040513d6020811015611dee57600080fd5b50516040805163682e3c6d60e11b8152600481018390526103e86024820152905191925060009173__SafeMath______________________________9163d05c78da916044808301926020929190829003018186803b158015611e5057600080fd5b505af4158015611e64573d6000803e3d6000fd5b505050506040513d6020811015611e7a57600080fd5b5051604080516314527a3d60e31b81526004810189905260248101839052905191925060009173__SafeMath______________________________9163a293d1e8916044808301926020929190829003018186803b158015611edb57600080fd5b505af4158015611eef573d6000803e3d6000fd5b505050506040513d6020811015611f0557600080fd5b5051604080516314527a3d60e31b8152600481018a905260248101839052905191925060009173__SafeMath______________________________9163a293d1e8916044808301926020929190829003018186803b158015611f6657600080fd5b505af4158015611f7a573d6000803e3d6000fd5b505050506040513d6020811015611f9057600080fd5b50519050801561201657604080516369e73bff60e11b81523360048201526024810183905290516001600160a01b0388169163d3ce77fe9160448083019260209291908290030181600087803b158015611fe957600080fd5b505af1158015611ffd573d6000803e3d6000fd5b505050506040513d602081101561201357600080fd5b50505b73__SafeMath______________________________63d05c78da856005546040518363ffffffff1660e01b8152600401808381526020018281526020019250505060206040518083038186803b15801561206f57600080fd5b505af4158015612083573d6000803e3d6000fd5b505050506040513d602081101561209957600080fd5b50516040805163682e3c6d60e11b815260048101839052600a6024820152905191985073__SafeMath______________________________9163b5931f7c91839163d05c78da91604480820192602092909190829003018186803b15801561210057600080fd5b505af4158015612114573d6000803e3d6000fd5b505050506040513d602081101561212a57600080fd5b5051600654604080516001600160e01b031960e086901b16815260048101939093526024830191909152516044808301926020929190829003018186803b15801561217457600080fd5b505af4158015612188573d6000803e3d6000fd5b505050506040513d602081101561219e57600080fd5b5051600454604080513381526001600160a01b0390921660208301528181018690526060820185905260808201839052519198507f2c488c4d370d7942ade9c611af42e134c4064f1a07e3ac199c285a52f148248c919081900360a00190a1505050505050919050565b60008073__SafeMath______________________________63b5931f7c846005546040518363ffffffff1660e01b8152600401808381526020018281526020019250505060206040518083038186803b15801561226457600080fd5b505af4158015612278573d6000803e3d6000fd5b505050506040513d602081101561228e57600080fd5b50516005546040805163682e3c6d60e11b81526004810184905260248101929092525191925060009173__SafeMath______________________________9163d05c78da916044808301926020929190829003018186803b1580156122f257600080fd5b505af4158015612306573d6000803e3d6000fd5b505050506040513d602081101561231c57600080fd5b5051604080516314527a3d60e31b81526004810187905260248101839052905191925073__SafeMath______________________________9163a293d1e891604480820192602092909190829003018186803b15801561237b57600080fd5b505af415801561238f573d6000803e3d6000fd5b505050506040513d60208110156123a557600080fd5b50516040805163682e3c6d60e11b8152600481018590526103e86024820152905191945073__SafeMath______________________________9163d05c78da91604480820192602092909190829003018186803b15801561240557600080fd5b505af4158015612419573d6000803e3d6000fd5b505050506040513d602081101561242f57600080fd5b505160075460408051630209fccb60e61b81523360048201526024810184905290519294506001600160a01b039091169163827f32c0916044808201926020929091908290030181600087803b15801561248857600080fd5b505af115801561249c573d6000803e3d6000fd5b505050506040513d60208110156124b257600080fd5b505060075460408051630209fccb60e61b81523060048201526024810185905290516001600160a01b039092169163827f32c0916044808201926020929091908290030181600087803b15801561250857600080fd5b505af115801561251c573d6000803e3d6000fd5b505050506040513d602081101561253257600080fd5b5050600454604080513381526001600160a01b0390921660208301528181018390526060820185905260808201849052517f08bae362af001cd7cc503521f42262b14244763e8ae0754385e49f0d5584581a9181900360a00190a1505091905056fe53746446756e64416e64446973747269627574653a66756e642c20696e76616c6964207472616e736665726f6e6c792061207369676e65722063616e2063616c6c20696e204d756c7469536967546f6f6c7346756e64416e64446973747269627574653a66756e642c207472616e7366657246726f6d2072657475726e2066616c7365a265627a7a72305820ce56f5a7457380fd7874a20ec7c0fa2e755808b1f0808cef4595915bc0f488d364736f6c634300050a0032a265627a7a7230582097ed6c5c56b9acb2f793fb6b032cf5e4fad6708f119e208b55bd25de340fc76a64736f6c634300050a0032",
  "source": "pragma solidity >=0.4.21 <0.6.0;\n\nimport \"./utils/TokenClaimer.sol\";\nimport \"./MultiSigTools.sol\";\nimport \"./TrustListTools.sol\";\nimport \"./utils/SafeMath.sol\";\n\ncontract GTTokenInterface is TransferableToken{\n    function destroyTokens(address _owner, uint _amount) public returns (bool);\n    function generateTokens(address _owner, uint _amount) public returns (bool);\n}\n\n\ncontract FundAndDistribute is TokenClaimer, MultiSigTools, TrustListTools{\n  using SafeMath for uint;\n\n  string public name;\n  string public desc;\n  address public token_contract;\n  uint public tokens_per_k_gt;\n  uint public exchange_ratio; //actual is 10/exchange_ratio\n  GTTokenInterface public gt_token;\n  bool public paused;\n\n  event Fund(address addr, address token, uint cost_amount, uint remain, uint got_amount);\n  event Exchange(address addr, address token, uint cost_amout, uint remain, uint got_amount);\n\n  constructor(address _gt_token,\n              string memory _name,\n              string memory _desc,\n              address _token_contract,\n              address _multisig,\n              address _tlist)  public MultiSigTools(_multisig) TrustListTools(_tlist){\n    gt_token = GTTokenInterface(_gt_token);\n    name = _name;\n    desc = _desc;\n    token_contract = _token_contract;\n    tokens_per_k_gt = 1000;\n    exchange_ratio = 20; //1/2\n    paused = false;\n  }\n\n  function balance() public returns(uint){\n      TransferableToken token = TransferableToken(address(gt_token));\n      return token.balanceOf(address(this));\n  }\n  function transfer(uint64 id, address to, uint amount)\n    public\n    only_signer\n    is_majority_sig(id, \"transfer\")\n  returns (bool success){\n      TransferableToken token = TransferableToken(address(gt_token));\n      token.transfer(to, amount);\n      return true;\n  }\n\n    function claimStdTokens(uint64 id, address _token, address payable to) public only_signer is_majority_sig(id, \"claimStdTokens\"){\n      _claimStdTokens(_token, to);\n    }\n  modifier when_paused(){\n    require(paused == true, \"require paused\");\n    _;\n  }\n  modifier when_not_paused(){\n    require(paused == false, \"require not paused\");\n    _;\n  }\n\n    function pause(uint64 id) public only_signer is_majority_sig(id, \"pause\"){\n      paused = true;\n    }\n    function unpause(uint64 id) public only_signer is_majority_sig(id, \"unpause\"){\n      paused = false;\n    }\n\n    function set_param(uint64 id, uint _tokens_per_k_gt, uint _exchange_ratio) public only_signer is_majority_sig(id, \"set_param\"){\n      require(_tokens_per_k_gt > 0);\n      require(_exchange_ratio > 0);\n      tokens_per_k_gt = _tokens_per_k_gt;\n      exchange_ratio = _exchange_ratio;\n    }\n\n    /* @_amount: in token_contract unit, like USDT\n     */\n    function _fund(uint _amount) internal returns(uint remain){\n      uint v = SafeMath.safeDiv(_amount, tokens_per_k_gt);\n      uint cost = SafeMath.safeMul(v, tokens_per_k_gt);\n      remain = SafeMath.safeSub(_amount, cost);\n      v = SafeMath.safeMul(v, 1000);\n      gt_token.generateTokens(msg.sender, v);\n      gt_token.generateTokens(address(this), v);\n      emit Fund(msg.sender, token_contract, cost, remain, v);\n    }\n\n    /* @_amount: in GTToken unit\n     * @remain_token: in token_contract unit, like USDT\n     */\n    function _exchange(uint _amount) internal returns(uint remain_token){\n      require(_amount > 0, \"fund should be > 0\");\n      GTTokenInterface token = GTTokenInterface(address(gt_token));\n      uint old_balance = token.balanceOf(msg.sender);\n      require(old_balance >= _amount, \"not enough amout\");\n\n      uint k_gts = SafeMath.safeDiv(_amount, 1000);\n      uint cost = SafeMath.safeMul(k_gts, 1000);\n      uint r = SafeMath.safeSub(_amount, cost);\n      uint burn = SafeMath.safeSub(_amount, r);\n      if(burn > 0){\n        token.destroyTokens(msg.sender, burn);\n      }\n      remain_token = SafeMath.safeMul(k_gts, tokens_per_k_gt);\n      remain_token = SafeMath.safeDiv(SafeMath.safeMul(remain_token, 10), exchange_ratio);\n      emit Exchange(msg.sender, token_contract,cost, r, remain_token);\n    }\n\n  function fund(uint amount) public when_not_paused is_trusted(msg.sender) returns (bool){\n    require(amount > 0, \"fund should be > 0\");\n    TransferableToken token = TransferableToken(token_contract);\n    uint old_balance = token.balanceOf(address(this));\n    (bool ret, ) = token_contract.call(abi.encodeWithSignature(\"transferFrom(address,address,uint256)\", msg.sender, address(this), amount));\n    require(ret, \"FundAndDistribute:fund, transferFrom return false\");\n    uint new_balance = token.balanceOf(address(this));\n    require(new_balance == old_balance + amount, \"StdFundAndDistribute:fund, invalid transfer\");\n    uint remain = _fund(amount);\n    if(remain > 0){\n      token.transfer(msg.sender, remain);\n    }\n    return true;\n  }\n\n  function exchange(uint amount) public when_not_paused returns(bool){\n    uint ret_token_amount = _exchange(amount);\n    if(ret_token_amount > 0){\n      (bool ret, ) = token_contract.call(abi.encodeWithSignature(\"transfer(address,uint256)\", msg.sender, ret_token_amount));\n      require(ret, \"FundAndDistribute:fund, transferFrom return false\");\n    }\n    return true;\n  }\n}\n\n\ncontract FundAndDistributeFactory{\n\n  event NewFundAndDistribute(address addr);\n\n  function createStdERC20TokenIssuer(address _gt_token,\n                                     string memory _name,\n                                     string memory _desc,\n                                     address _token_contract,\n                                     address _multisig,\n                                     address _tlist) public returns(address){\n    FundAndDistribute c = new FundAndDistribute(_gt_token, _name, _desc, _token_contract, _multisig, _tlist);\n    emit NewFundAndDistribute(address(c));\n    return address(c);\n  }\n}\n",
  "sourcePath": "/Users/xuepeng/projects/gttoken-contract/contracts/FundAndDistribute.sol",
  "compiler": {
    "name": "solc",
    "version": "0.5.10+commit.5a6ea5b1.Emscripten.clang"
  },
  "schemaVersion": "3.0.11",
  "updatedAt": "2020-04-27T14:47:29.767Z",
  "devdoc": {
    "methods": {}
  },
  "userdoc": {
    "methods": {}
  }
}