{
  "contractName": "GTProject",
  "abi": [
    {
      "constant": true,
      "inputs": [],
      "name": "project_intro",
      "outputs": [
        {
          "name": "",
          "type": "string"
        }
      ],
      "payable": false,
      "stateMutability": "view",
      "type": "function"
    },
    {
      "constant": true,
      "inputs": [
        {
          "name": "",
          "type": "uint256"
        }
      ],
      "name": "extra_contract_names",
      "outputs": [
        {
          "name": "",
          "type": "string"
        }
      ],
      "payable": false,
      "stateMutability": "view",
      "type": "function"
    },
    {
      "constant": false,
      "inputs": [
        {
          "name": "id",
          "type": "uint64"
        },
        {
          "name": "_contract",
          "type": "address"
        }
      ],
      "name": "transfer_multisig",
      "outputs": [],
      "payable": false,
      "stateMutability": "nonpayable",
      "type": "function"
    },
    {
      "constant": true,
      "inputs": [],
      "name": "project_logo",
      "outputs": [
        {
          "name": "",
          "type": "string"
        }
      ],
      "payable": false,
      "stateMutability": "view",
      "type": "function"
    },
    {
      "constant": true,
      "inputs": [],
      "name": "project_reserve",
      "outputs": [
        {
          "name": "",
          "type": "string"
        }
      ],
      "payable": false,
      "stateMutability": "view",
      "type": "function"
    },
    {
      "constant": true,
      "inputs": [],
      "name": "multisig_contract",
      "outputs": [
        {
          "name": "",
          "type": "address"
        }
      ],
      "payable": false,
      "stateMutability": "view",
      "type": "function"
    },
    {
      "constant": true,
      "inputs": [
        {
          "name": "",
          "type": "bytes32"
        }
      ],
      "name": "extra_contracts",
      "outputs": [
        {
          "name": "",
          "type": "address"
        }
      ],
      "payable": false,
      "stateMutability": "view",
      "type": "function"
    },
    {
      "constant": true,
      "inputs": [],
      "name": "vote_contract",
      "outputs": [
        {
          "name": "",
          "type": "address"
        }
      ],
      "payable": false,
      "stateMutability": "view",
      "type": "function"
    },
    {
      "constant": true,
      "inputs": [],
      "name": "project_name",
      "outputs": [
        {
          "name": "",
          "type": "string"
        }
      ],
      "payable": false,
      "stateMutability": "view",
      "type": "function"
    },
    {
      "inputs": [
        {
          "name": "_name",
          "type": "string"
        },
        {
          "name": "_intro",
          "type": "string"
        },
        {
          "name": "_logo",
          "type": "string"
        },
        {
          "name": "_reserve",
          "type": "string"
        },
        {
          "name": "_multisig",
          "type": "address"
        },
        {
          "name": "_vote",
          "type": "address"
        }
      ],
      "payable": false,
      "stateMutability": "nonpayable",
      "type": "constructor"
    },
    {
      "anonymous": false,
      "inputs": [
        {
          "indexed": false,
          "name": "item",
          "type": "string"
        },
        {
          "indexed": false,
          "name": "old_value",
          "type": "string"
        },
        {
          "indexed": false,
          "name": "new_value",
          "type": "string"
        }
      ],
      "name": "ChangeProjectInfo",
      "type": "event"
    },
    {
      "anonymous": false,
      "inputs": [
        {
          "indexed": false,
          "name": "_old_contract",
          "type": "address"
        },
        {
          "indexed": false,
          "name": "_contract",
          "type": "address"
        }
      ],
      "name": "ChangeVoteContract",
      "type": "event"
    },
    {
      "anonymous": false,
      "inputs": [
        {
          "indexed": false,
          "name": "_name",
          "type": "string"
        },
        {
          "indexed": false,
          "name": "_contract",
          "type": "address"
        }
      ],
      "name": "AddExtraContract",
      "type": "event"
    },
    {
      "anonymous": false,
      "inputs": [
        {
          "indexed": false,
          "name": "_name",
          "type": "string"
        },
        {
          "indexed": false,
          "name": "_contract",
          "type": "address"
        }
      ],
      "name": "RemoveExtraContract",
      "type": "event"
    },
    {
      "anonymous": false,
      "inputs": [
        {
          "indexed": true,
          "name": "_token",
          "type": "address"
        },
        {
          "indexed": true,
          "name": "_to",
          "type": "address"
        },
        {
          "indexed": false,
          "name": "_amount",
          "type": "uint256"
        }
      ],
      "name": "ClaimedTokens",
      "type": "event"
    },
    {
      "anonymous": false,
      "inputs": [
        {
          "indexed": false,
          "name": "_old",
          "type": "address"
        },
        {
          "indexed": false,
          "name": "_new",
          "type": "address"
        }
      ],
      "name": "TransferMultiSig",
      "type": "event"
    },
    {
      "constant": false,
      "inputs": [
        {
          "name": "id",
          "type": "uint64"
        },
        {
          "name": "_name",
          "type": "string"
        }
      ],
      "name": "changeProjectName",
      "outputs": [],
      "payable": false,
      "stateMutability": "nonpayable",
      "type": "function"
    },
    {
      "constant": false,
      "inputs": [
        {
          "name": "id",
          "type": "uint64"
        },
        {
          "name": "_intro",
          "type": "string"
        }
      ],
      "name": "changeProjectIntro",
      "outputs": [],
      "payable": false,
      "stateMutability": "nonpayable",
      "type": "function"
    },
    {
      "constant": false,
      "inputs": [
        {
          "name": "id",
          "type": "uint64"
        },
        {
          "name": "_logo",
          "type": "string"
        }
      ],
      "name": "changeProjectLogo",
      "outputs": [],
      "payable": false,
      "stateMutability": "nonpayable",
      "type": "function"
    },
    {
      "constant": false,
      "inputs": [
        {
          "name": "id",
          "type": "uint64"
        },
        {
          "name": "_reserve",
          "type": "string"
        }
      ],
      "name": "changeProjectReserve",
      "outputs": [],
      "payable": false,
      "stateMutability": "nonpayable",
      "type": "function"
    },
    {
      "constant": false,
      "inputs": [
        {
          "name": "id",
          "type": "uint64"
        },
        {
          "name": "_vote",
          "type": "address"
        }
      ],
      "name": "changeVoteContract",
      "outputs": [],
      "payable": false,
      "stateMutability": "nonpayable",
      "type": "function"
    },
    {
      "constant": false,
      "inputs": [
        {
          "name": "id",
          "type": "uint64"
        },
        {
          "name": "_name",
          "type": "string"
        },
        {
          "name": "_contract",
          "type": "address"
        }
      ],
      "name": "addExtraContract",
      "outputs": [],
      "payable": false,
      "stateMutability": "nonpayable",
      "type": "function"
    },
    {
      "constant": false,
      "inputs": [
        {
          "name": "id",
          "type": "uint64"
        },
        {
          "name": "_name",
          "type": "string"
        }
      ],
      "name": "removeExtraContract",
      "outputs": [],
      "payable": false,
      "stateMutability": "nonpayable",
      "type": "function"
    },
    {
      "constant": true,
      "inputs": [],
      "name": "getExtraContractNumber",
      "outputs": [
        {
          "name": "",
          "type": "uint256"
        }
      ],
      "payable": false,
      "stateMutability": "view",
      "type": "function"
    },
    {
      "constant": true,
      "inputs": [
        {
          "name": "i",
          "type": "uint256"
        }
      ],
      "name": "getExtraContractInfo",
      "outputs": [
        {
          "name": "name",
          "type": "string"
        },
        {
          "name": "addr",
          "type": "address"
        }
      ],
      "payable": false,
      "stateMutability": "view",
      "type": "function"
    },
    {
      "constant": true,
      "inputs": [
        {
          "name": "_name",
          "type": "string"
        }
      ],
      "name": "getExtraContractAddress",
      "outputs": [
        {
          "name": "",
          "type": "address"
        }
      ],
      "payable": false,
      "stateMutability": "view",
      "type": "function"
    },
    {
      "constant": false,
      "inputs": [
        {
          "name": "id",
          "type": "uint64"
        },
        {
          "name": "_token",
          "type": "address"
        },
        {
          "name": "to",
          "type": "address"
        }
      ],
      "name": "claimStdTokens",
      "outputs": [],
      "payable": false,
      "stateMutability": "nonpayable",
      "type": "function"
    }
  ],
  "bytecode": "0x60806040523480156200001157600080fd5b506040516200355738038062003557833981810160405260c08110156200003757600080fd5b8101908080516401000000008111156200005057600080fd5b820160208101848111156200006457600080fd5b81516401000000008111828201871017156200007f57600080fd5b505092919060200180516401000000008111156200009c57600080fd5b82016020810184811115620000b057600080fd5b8151640100000000811182820187101715620000cb57600080fd5b50509291906020018051640100000000811115620000e857600080fd5b82016020810184811115620000fc57600080fd5b81516401000000008111828201871017156200011757600080fd5b505092919060200180516401000000008111156200013457600080fd5b820160208101848111156200014857600080fd5b81516401000000008111828201871017156200016357600080fd5b50506020820151604090920151909350909150816001600160a01b0381166200018b57600080fd5b600080546001600160a01b0319166001600160a01b03929092169190911790558551620001c09060019060208901906200022f565b508451620001d69060029060208801906200022f565b508351620001ec9060039060208701906200022f565b508251620002029060049060208601906200022f565b50600580546001600160a01b0319166001600160a01b039290921691909117905550620002d49350505050565b828054600181600116156101000203166002900490600052602060002090601f016020900481019282601f106200027257805160ff1916838001178555620002a2565b82800160010185558215620002a2579182015b82811115620002a257825182559160200191906001019062000285565b50620002b0929150620002b4565b5090565b620002d191905b80821115620002b05760008155600101620002bb565b90565b61327380620002e46000396000f3fe608060405234801561001057600080fd5b506004361061012c5760003560e01c806366e25845116100ad578063c7dbe8e011610071578063c7dbe8e0146106e7578063ca7dae691461079b578063da17611b146107a3578063dc9c9f33146107bd578063e27262f9146107c55761012c565b806366e25845146104a05780636ce5edff14610554578063856d39cb146105785780639bc81e6b14610595578063b5f83649146106435761012c565b80631a6e4107116100f45780631a6e4107146102f357806331984b0314610328578063448387601461033057806361ba33671461033857806361cf72f2146103ec5761012c565b806305404b1c146101315780630a68a399146101e75780630bfe1587146102645780630c3129fe1461028157806310cb818c146102be575b600080fd5b6101e56004803603604081101561014757600080fd5b6001600160401b038235169190810190604081016020820135600160201b81111561017157600080fd5b82018360208201111561018357600080fd5b803590602001918460018302840111600160201b831117156101a457600080fd5b91908080601f016020809104026020016040519081016040528093929190818152602001838380828437600092019190915250929550610884945050505050565b005b6101ef610db3565b6040805160208082528351818301528351919283929083019185019080838360005b83811015610229578181015183820152602001610211565b50505050905090810190601f1680156102565780820380516001836020036101000a031916815260200191505b509250505060405180910390f35b6101ef6004803603602081101561027a57600080fd5b5035610e3e565b6101e56004803603606081101561029757600080fd5b506001600160401b03813516906001600160a01b0360208201358116916040013516610eb1565b6101e5600480360360408110156102d457600080fd5b5080356001600160401b031690602001356001600160a01b0316611100565b6101e56004803603604081101561030957600080fd5b5080356001600160401b031690602001356001600160a01b03166113ba565b6101ef611667565b6101ef6116c2565b6101e56004803603604081101561034e57600080fd5b6001600160401b038235169190810190604081016020820135600160201b81111561037857600080fd5b82018360208201111561038a57600080fd5b803590602001918460018302840111600160201b831117156103ab57600080fd5b91908080601f01602080910402602001604051908101604052809392919081815260200183838082843760009201919091525092955061171d945050505050565b6101e56004803603604081101561040257600080fd5b6001600160401b038235169190810190604081016020820135600160201b81111561042c57600080fd5b82018360208201111561043e57600080fd5b803590602001918460018302840111600160201b8311171561045f57600080fd5b91908080601f016020809104026020016040519081016040528093929190818152602001838380828437600092019190915250929550611b31945050505050565b6101e5600480360360408110156104b657600080fd5b6001600160401b038235169190810190604081016020820135600160201b8111156104e057600080fd5b8201836020820111156104f257600080fd5b803590602001918460018302840111600160201b8311171561051357600080fd5b91908080601f016020809104026020016040519081016040528093929190818152602001838380828437600092019190915250929550611f15945050505050565b61055c6122f0565b604080516001600160a01b039092168252519081900360200190f35b61055c6004803603602081101561058e57600080fd5b50356122ff565b6105b2600480360360208110156105ab57600080fd5b503561231a565b6040518080602001836001600160a01b03166001600160a01b03168152602001828103825284818151815260200191508051906020019080838360005b838110156106075781810151838201526020016105ef565b50505050905090810190601f1680156106345780820380516001836020036101000a031916815260200191505b50935050505060405180910390f35b61055c6004803603602081101561065957600080fd5b810190602081018135600160201b81111561067357600080fd5b82018360208201111561068557600080fd5b803590602001918460018302840111600160201b831117156106a657600080fd5b91908080601f016020809104026020016040519081016040528093929190818152602001838380828437600092019190915250929550612417945050505050565b6101e5600480360360408110156106fd57600080fd5b6001600160401b038235169190810190604081016020820135600160201b81111561072757600080fd5b82018360208201111561073957600080fd5b803590602001918460018302840111600160201b8311171561075a57600080fd5b91908080601f0160208091040260200160405190810160405280939291908181526020018383808284376000920191909152509295506124a5945050505050565b61055c612881565b6107ab612890565b60408051918252519081900360200190f35b6101ef612897565b6101e5600480360360608110156107db57600080fd5b6001600160401b038235169190810190604081016020820135600160201b81111561080557600080fd5b82018360208201111561081757600080fd5b803590602001918460018302840111600160201b8311171561083857600080fd5b91908080601f016020809104026020016040519081016040528093929190818152602001838380828437600092019190915250929550505090356001600160a01b031691506128f19050565b60005460408051629764fd60e61b815233600482015290516001600160a01b03909216916325d93f4091602480820192602092909190829003018186803b1580156108ce57600080fd5b505afa1580156108e2573d6000803e3d6000fd5b505050506040513d60208110156108f857600080fd5b50516109355760405162461bcd60e51b81526004018080602001828103825260278152602001806132186027913960400191505060405180910390fd5b81604051806040016040528060138152602001721c995b5bdd99515e1d1c9850dbdb9d1c9858dd606a1b815250600080356001600160e01b03191660003660405160200180846001600160e01b0319166001600160e01b03191681526004018383808284376040805191909301818103601f190182529283905280516020918201206000805463d253eced60e01b86526001600160401b038d16600487019081526044870184905233606488018190526080602489019081528e5160848a01528e51959d506001600160a01b039093169b5063d253eced9a508e99508d98508c979096509094919360a490910192918801918190849084905b83811015610a46578181015183820152602001610a2e565b50505050905090810190601f168015610a735780820380516001836020036101000a031916815260200191505b5095505050505050602060405180830381600087803b158015610a9557600080fd5b505af1158015610aa9573d6000803e3d6000fd5b505050506040513d6020811015610abf57600080fd5b505115610dac576000846040516020018082805190602001908083835b60208310610afb5780518252601f199092019160209182019101610adc565b51815160209384036101000a60001901801990921691161790526040805192909401828103601f1901835284528151918101919091206000818152600690925292902054919450506001600160a01b031615159150610b8f9050576040805162461bcd60e51b81526020600482015260096024820152681b9bdd08195e1a5cdd60ba1b604482015290519081900360640190fd5b600081815260066020526040812080546001600160a01b031981169091556001600160a01b0316905b600754811015610cf5578260078281548110610bd057fe5b906000526020600020016040516020018082805460018160011615610100020316600290048015610c385780601f10610c16576101008083540402835291820191610c38565b820191906000526020600020905b815481529060010190602001808311610c24575b5050915050604051602081830303815290604052805190602001201415610ced57600780546000198101908110610c6b57fe5b9060005260206000200160078281548110610c8257fe5b906000526020600020019080546001816001161561010002031660029004610cab929190613057565b50600780546000198101908110610cbe57fe5b906000526020600020016000610cd491906130dc565b6007805490610ce7906000198301613123565b50610cf5565b600101610bb8565b507fe895497d2ac6a16fcef5f66747944ba9baa871353b223b9c55fedf454ab1f8eb86826040518080602001836001600160a01b03166001600160a01b03168152602001828103825284818151815260200191508051906020019080838360005b83811015610d6e578181015183820152602001610d56565b50505050905090810190601f168015610d9b5780820380516001836020036101000a031916815260200191505b50935050505060405180910390a150505b5050505050565b6002805460408051602060018416156101000260001901909316849004601f81018490048402820184019092528181529291830182828015610e365780601f10610e0b57610100808354040283529160200191610e36565b820191906000526020600020905b815481529060010190602001808311610e1957829003601f168201915b505050505081565b60078181548110610e4b57fe5b600091825260209182902001805460408051601f6002600019610100600187161502019094169390930492830185900485028101850190915281815293509091830182828015610e365780601f10610e0b57610100808354040283529160200191610e36565b60005460408051629764fd60e61b815233600482015290516001600160a01b03909216916325d93f4091602480820192602092909190829003018186803b158015610efb57600080fd5b505afa158015610f0f573d6000803e3d6000fd5b505050506040513d6020811015610f2557600080fd5b5051610f625760405162461bcd60e51b81526004018080602001828103825260278152602001806132186027913960400191505060405180910390fd5b826040518060400160405280600e81526020016d636c61696d537464546f6b656e7360901b815250600080356001600160e01b03191660003660405160200180846001600160e01b0319166001600160e01b03191681526004018383808284376040805191909301818103601f190182529283905280516020918201206000805463d253eced60e01b86526001600160401b038d16600487019081526044870184905233606488018190526080602489019081528e5160848a01528e51959d506001600160a01b039093169b5063d253eced9a508e99508d98508c979096509094919360a490910192918801918190849084905b8381101561106e578181015183820152602001611056565b50505050905090810190601f16801561109b5780820380516001836020036101000a031916815260200191505b5095505050505050602060405180830381600087803b1580156110bd57600080fd5b505af11580156110d1573d6000803e3d6000fd5b505050506040513d60208110156110e757600080fd5b5051156110f8576110f88585612d33565b505050505050565b60005460408051629764fd60e61b815233600482015290516001600160a01b03909216916325d93f4091602480820192602092909190829003018186803b15801561114a57600080fd5b505afa15801561115e573d6000803e3d6000fd5b505050506040513d602081101561117457600080fd5b50516111b15760405162461bcd60e51b81526004018080602001828103825260278152602001806132186027913960400191505060405180910390fd5b81604051806040016040528060118152602001707472616e736665725f6d756c746973696760781b815250600080356001600160e01b03191660003660405160200180846001600160e01b0319166001600160e01b03191681526004018383808284376040805191909301818103601f190182529283905280516020918201206000805463d253eced60e01b86526001600160401b038d16600487019081526044870184905233606488018190526080602489019081528e5160848a01528e51959d506001600160a01b039093169b5063d253eced9a508e99508d98508c979096509094919360a490910192918801918190849084905b838110156112c05781810151838201526020016112a8565b50505050905090810190601f1680156112ed5780820380516001836020036101000a031916815260200191505b5095505050505050602060405180830381600087803b15801561130f57600080fd5b505af1158015611323573d6000803e3d6000fd5b505050506040513d602081101561133957600080fd5b505115610dac576001600160a01b03841661135357600080fd5b600080546001600160a01b038681166001600160a01b0319831681179093556040805191909216808252602082019390935281517fd30bbf8c51d656e1f0bad4c64bc25c133cb2e626cf2791746b0f083b38ea3fdd929181900390910190a1505050505050565b60005460408051629764fd60e61b815233600482015290516001600160a01b03909216916325d93f4091602480820192602092909190829003018186803b15801561140457600080fd5b505afa158015611418573d6000803e3d6000fd5b505050506040513d602081101561142e57600080fd5b505161146b5760405162461bcd60e51b81526004018080602001828103825260278152602001806132186027913960400191505060405180910390fd5b816040518060400160405280601281526020017118da185b99d9559bdd1950dbdb9d1c9858dd60721b815250600080356001600160e01b03191660003660405160200180846001600160e01b0319166001600160e01b03191681526004018383808284376040805191909301818103601f190182529283905280516020918201206000805463d253eced60e01b86526001600160401b038d16600487019081526044870184905233606488018190526080602489019081528e5160848a01528e51959d506001600160a01b039093169b5063d253eced9a508e99508d98508c979096509094919360a490910192918801918190849084905b8381101561157b578181015183820152602001611563565b50505050905090810190601f1680156115a85780820380516001836020036101000a031916815260200191505b5095505050505050602060405180830381600087803b1580156115ca57600080fd5b505af11580156115de573d6000803e3d6000fd5b505050506040513d60208110156115f457600080fd5b505115610dac57600554604080516001600160a01b039283168152918616602083015280517fbabcc179a3c66b68f386f413ea5980f4b11a9e59a9a2e5f6160ac88ee811c1b99281900390910190a1600580546001600160a01b0386166001600160a01b03199091161790555050505050565b6003805460408051602060026001851615610100026000190190941693909304601f81018490048402820184019092528181529291830182828015610e365780601f10610e0b57610100808354040283529160200191610e36565b6004805460408051602060026001851615610100026000190190941693909304601f81018490048402820184019092528181529291830182828015610e365780601f10610e0b57610100808354040283529160200191610e36565b60005460408051629764fd60e61b815233600482015290516001600160a01b03909216916325d93f4091602480820192602092909190829003018186803b15801561176757600080fd5b505afa15801561177b573d6000803e3d6000fd5b505050506040513d602081101561179157600080fd5b50516117ce5760405162461bcd60e51b81526004018080602001828103825260278152602001806132186027913960400191505060405180910390fd5b81604051806040016040528060118152602001706368616e676550726f6a6563744c6f676f60781b815250600080356001600160e01b03191660003660405160200180846001600160e01b0319166001600160e01b03191681526004018383808284376040805191909301818103601f190182529283905280516020918201206000805463d253eced60e01b86526001600160401b038d16600487019081526044870184905233606488018190526080602489019081528e5160848a01528e51959d506001600160a01b039093169b5063d253eced9a508e99508d98508c979096509094919360a490910192918801918190849084905b838110156118dd5781810151838201526020016118c5565b50505050905090810190601f16801561190a5780820380516001836020036101000a031916815260200191505b5095505050505050602060405180830381600087803b15801561192c57600080fd5b505af1158015611940573d6000803e3d6000fd5b505050506040513d602081101561195657600080fd5b505115610dac5760038054604080516020601f600260001961010060018816150201909516949094049384018190048102820181019092528281526119f593909290918301828280156119ea5780601f106119bf576101008083540402835291602001916119ea565b820191906000526020600020905b8154815290600101906020018083116119cd57829003601f168201915b505050505085612f70565b610dac57604080516060808252600490820152636e616d6560e01b608082015260a06020820181815260038054600260001961010060018416150201909116049284018390526000805160206131f883398151915294909389939092839290919083019060c084019087908015611aad5780601f10611a8257610100808354040283529160200191611aad565b820191906000526020600020905b815481529060010190602001808311611a9057829003601f168201915b5050848103825285518152855160209182019187019080838360005b83811015611ae1578181015183820152602001611ac9565b50505050905090810190601f168015611b0e5780820380516001836020036101000a031916815260200191505b509550505050505060405180910390a183516110f890600390602087019061314c565b60005460408051629764fd60e61b815233600482015290516001600160a01b03909216916325d93f4091602480820192602092909190829003018186803b158015611b7b57600080fd5b505afa158015611b8f573d6000803e3d6000fd5b505050506040513d6020811015611ba557600080fd5b5051611be25760405162461bcd60e51b81526004018080602001828103825260278152602001806132186027913960400191505060405180910390fd5b81604051806040016040528060148152602001736368616e676550726f6a6563745265736572766560601b815250600080356001600160e01b03191660003660405160200180846001600160e01b0319166001600160e01b03191681526004018383808284376040805191909301818103601f190182529283905280516020918201206000805463d253eced60e01b86526001600160401b038d16600487019081526044870184905233606488018190526080602489019081528e5160848a01528e51959d506001600160a01b039093169b5063d253eced9a508e99508d98508c979096509094919360a490910192918801918190849084905b83811015611cf4578181015183820152602001611cdc565b50505050905090810190601f168015611d215780820380516001836020036101000a031916815260200191505b5095505050505050602060405180830381600087803b158015611d4357600080fd5b505af1158015611d57573d6000803e3d6000fd5b505050506040513d6020811015611d6d57600080fd5b505115610dac5760048054604080516020601f60026000196101006001881615020190951694909404938401819004810282018101909252828152611dd693909290918301828280156119ea5780601f106119bf576101008083540402835291602001916119ea565b610dac57604080516060808252600790820152667265736572766560c81b608082015260a06020820181815260048054600260001961010060018416150201909116049284018390526000805160206131f883398151915294909389939092839290919083019060c084019087908015611e915780601f10611e6657610100808354040283529160200191611e91565b820191906000526020600020905b815481529060010190602001808311611e7457829003601f168201915b5050848103825285518152855160209182019187019080838360005b83811015611ec5578181015183820152602001611ead565b50505050905090810190601f168015611ef25780820380516001836020036101000a031916815260200191505b509550505050505060405180910390a183516110f890600490602087019061314c565b60005460408051629764fd60e61b815233600482015290516001600160a01b03909216916325d93f4091602480820192602092909190829003018186803b158015611f5f57600080fd5b505afa158015611f73573d6000803e3d6000fd5b505050506040513d6020811015611f8957600080fd5b5051611fc65760405162461bcd60e51b81526004018080602001828103825260278152602001806132186027913960400191505060405180910390fd5b81604051806040016040528060128152602001716368616e676550726f6a656374496e74726f60701b815250600080356001600160e01b03191660003660405160200180846001600160e01b0319166001600160e01b03191681526004018383808284376040805191909301818103601f190182529283905280516020918201206000805463d253eced60e01b86526001600160401b038d16600487019081526044870184905233606488018190526080602489019081528e5160848a01528e51959d506001600160a01b039093169b5063d253eced9a508e99508d98508c979096509094919360a490910192918801918190849084905b838110156120d65781810151838201526020016120be565b50505050905090810190601f1680156121035780820380516001836020036101000a031916815260200191505b5095505050505050602060405180830381600087803b15801561212557600080fd5b505af1158015612139573d6000803e3d6000fd5b505050506040513d602081101561214f57600080fd5b505115610dac5760028054604080516020601f600019610100600187161502019094168590049384018190048102820181019092528281526121b593909290918301828280156119ea5780601f106119bf576101008083540402835291602001916119ea565b610dac5760408051606080825260059082015264696e74726f60d81b608082015260a0602082018181526002805460001961010060018316150201168190049284018390526000805160206131f883398151915294909389939092839290919083019060c08401908790801561226c5780601f106122415761010080835404028352916020019161226c565b820191906000526020600020905b81548152906001019060200180831161224f57829003601f168201915b5050848103825285518152855160209182019187019080838360005b838110156122a0578181015183820152602001612288565b50505050905090810190601f1680156122cd5780820380516001836020036101000a031916815260200191505b509550505050505060405180910390a183516110f890600290602087019061314c565b6000546001600160a01b031681565b6006602052600090815260409020546001600160a01b031681565b6007546060906000908310612365576040805162461bcd60e51b815260206004820152600c60248201526b6f7574206f662072616e676560a01b604482015290519081900360640190fd5b6007838154811061237257fe5b600091825260209182902001805460408051601f60026000196101006001871615020190941693909304928301859004850281018501909152818152928301828280156124005780601f106123d557610100808354040283529160200191612400565b820191906000526020600020905b8154815290600101906020018083116123e357829003601f168201915b5050505050915061241082612417565b9050915091565b600080826040516020018082805190602001908083835b6020831061244d5780518252601f19909201916020918201910161242e565b51815160209384036101000a60001901801990921691161790526040805192909401828103601f1901835284528151918101919091206000908152600690915291909120546001600160a01b03169695505050505050565b60005460408051629764fd60e61b815233600482015290516001600160a01b03909216916325d93f4091602480820192602092909190829003018186803b1580156124ef57600080fd5b505afa158015612503573d6000803e3d6000fd5b505050506040513d602081101561251957600080fd5b50516125565760405162461bcd60e51b81526004018080602001828103825260278152602001806132186027913960400191505060405180910390fd5b81604051806040016040528060118152602001706368616e676550726f6a6563744e616d6560781b815250600080356001600160e01b03191660003660405160200180846001600160e01b0319166001600160e01b03191681526004018383808284376040805191909301818103601f190182529283905280516020918201206000805463d253eced60e01b86526001600160401b038d16600487019081526044870184905233606488018190526080602489019081528e5160848a01528e51959d506001600160a01b039093169b5063d253eced9a508e99508d98508c979096509094919360a490910192918801918190849084905b8381101561266557818101518382015260200161264d565b50505050905090810190601f1680156126925780820380516001836020036101000a031916815260200191505b5095505050505050602060405180830381600087803b1580156126b457600080fd5b505af11580156126c8573d6000803e3d6000fd5b505050506040513d60208110156126de57600080fd5b505115610dac5760018054604080516020601f60026000196101008789161502019095169490940493840181900481028201810190925282815261274693909290918301828280156119ea5780601f106119bf576101008083540402835291602001916119ea565b610dac57604080516060808252600490820152636e616d6560e01b608082015260a060208201818152600180546002600019610100838516150201909116049284018390526000805160206131f883398151915294909389939092839290919083019060c0840190879080156127fd5780601f106127d2576101008083540402835291602001916127fd565b820191906000526020600020905b8154815290600101906020018083116127e057829003601f168201915b5050848103825285518152855160209182019187019080838360005b83811015612831578181015183820152602001612819565b50505050905090810190601f16801561285e5780820380516001836020036101000a031916815260200191505b509550505050505060405180910390a183516110f890600190602087019061314c565b6005546001600160a01b031681565b6007545b90565b60018054604080516020600284861615610100026000190190941693909304601f81018490048402820184019092528181529291830182828015610e365780601f10610e0b57610100808354040283529160200191610e36565b60005460408051629764fd60e61b815233600482015290516001600160a01b03909216916325d93f4091602480820192602092909190829003018186803b15801561293b57600080fd5b505afa15801561294f573d6000803e3d6000fd5b505050506040513d602081101561296557600080fd5b50516129a25760405162461bcd60e51b81526004018080602001828103825260278152602001806132186027913960400191505060405180910390fd5b826040518060400160405280601081526020016f185919115e1d1c9850dbdb9d1c9858dd60821b815250600080356001600160e01b03191660003660405160200180846001600160e01b0319166001600160e01b03191681526004018383808284376040805191909301818103601f190182529283905280516020918201206000805463d253eced60e01b86526001600160401b038d16600487019081526044870184905233606488018190526080602489019081528e5160848a01528e51959d506001600160a01b039093169b5063d253eced9a508e99508d98508c979096509094919360a490910192918801918190849084905b83811015612ab0578181015183820152602001612a98565b50505050905090810190601f168015612add5780820380516001836020036101000a031916815260200191505b5095505050505050602060405180830381600087803b158015612aff57600080fd5b505af1158015612b13573d6000803e3d6000fd5b505050506040513d6020811015612b2957600080fd5b5051156110f8576001600160a01b038416612b80576040805162461bcd60e51b81526020600482015260126024820152710616464726573732063616e277420626520360741b604482015290519081900360640190fd5b6000856040516020018082805190602001908083835b60208310612bb55780518252601f199092019160209182019101612b96565b51815160209384036101000a60001901801990921691161790526040805192909401828103601f1901835284528151918101919091206000818152600690925292902054919450506001600160a01b0316159150612c4c9050576040805162461bcd60e51b815260206004820152600d60248201526c185b1c9958591e48195e1a5cdd609a1b604482015290519081900360640190fd5b6000818152600660209081526040822080546001600160a01b0319166001600160a01b03891617905560078054600181018083559190935288519092612cba927fa66cc928b5edb82af9bd49922954155ab7b0942694bea4ce44661d9a8736c68890910191908a019061314c565b50507fc20f34a5e32d89b9a855d11c94ef8fcc68c835728f2400879a59525fa0c99d0386866040518080602001836001600160a01b03166001600160a01b031681526020018281038252848181518152602001915080519060200190808383600083811015610d6e578181015183820152602001610d56565b6001600160a01b038216612d7d576040516001600160a01b03821690303180156108fc02916000818181858888f19350505050158015612d77573d6000803e3d6000fd5b50612f6c565b604080516370a0823160e01b8152306004820152905183916000916001600160a01b038416916370a0823191602480830192602092919082900301818787803b158015612dc957600080fd5b505af1158015612ddd573d6000803e3d6000fd5b505050506040513d6020811015612df357600080fd5b5051604080516001600160a01b038681166024830152604480830185905283518084039091018152606490920183526020820180516001600160e01b031663a9059cbb60e01b178152925182519495506000949189169390918291908083835b60208310612e725780518252601f199092019160209182019101612e53565b6001836020036101000a0380198251168184511680821785525050505050509050019150506000604051808303816000865af19150503d8060008114612ed4576040519150601f19603f3d011682016040523d82523d6000602084013e612ed9565b606091505b5050905080612f1d576040805162461bcd60e51b815260206004820152600b60248201526a18d85b1b0819985a5b195960aa1b604482015290519081900360640190fd5b836001600160a01b0316856001600160a01b03167ff931edb47c50b4b4104c187b5814a9aef5f709e17e2ecf9617e860cacade929c846040518082815260200191505060405180910390a35050505b5050565b6000816040516020018082805190602001908083835b60208310612fa55780518252601f199092019160209182019101612f86565b6001836020036101000a03801982511681845116808217855250505050505090500191505060405160208183030381529060405280519060200120836040516020018082805190602001908083835b602083106130135780518252601f199092019160209182019101612ff4565b6001836020036101000a0380198251168184511680821785525050505050509050019150506040516020818303038152906040528051906020012014905092915050565b828054600181600116156101000203166002900490600052602060002090601f016020900481019282601f1061309057805485556130cc565b828001600101855582156130cc57600052602060002091601f016020900482015b828111156130cc5782548255916001019190600101906130b1565b506130d89291506131ba565b5090565b50805460018160011615610100020316600290046000825580601f106131025750613120565b601f01602090049060005260206000209081019061312091906131ba565b50565b815481835581811115613147576000838152602090206131479181019083016131d4565b505050565b828054600181600116156101000203166002900490600052602060002090601f016020900481019282601f1061318d57805160ff19168380011785556130cc565b828001600101855582156130cc579182015b828111156130cc57825182559160200191906001019061319f565b61289491905b808211156130d857600081556001016131c0565b61289491905b808211156130d85760006131ee82826130dc565b506001016131da56fe85c1ed1fc2878ddd6c8e1daac3b84fcfeb83d5314a746618866e3402ff3fd5c16f6e6c792061207369676e65722063616e2063616c6c20696e204d756c7469536967546f6f6c73a265627a7a72305820f2922a8448f7913099c170e29720329d82de5f24c0a90500b92fcf177dad2d5c64736f6c634300050a0032",
  "source": "pragma solidity >=0.4.21 <0.6.0;\nimport \"../MultiSigTools.sol\";\nimport \"../utils/TokenClaimer.sol\";\n\ncontract GTProject is MultiSigTools, TokenClaimer{\n  string public project_name;\n  string public project_intro;\n  string public project_logo;\n  string public project_reserve;\n\n  address public vote_contract;\n\n  mapping (bytes32 => address) public extra_contracts;\n  string[] public extra_contract_names;\n\n  event ChangeProjectInfo(string item, string old_value, string new_value);\n\n  event ChangeVoteContract(address _old_contract, address _contract);\n\n  event AddExtraContract(string _name, address _contract);\n  event RemoveExtraContract(string _name, address _contract);\n\n  constructor(string memory _name,\n              string memory _intro,\n              string memory _logo,\n              string memory _reserve,\n              address _multisig,\n              address _vote) MultiSigTools(_multisig) public{\n    project_name = _name;\n    project_intro = _intro;\n    project_logo = _logo;\n    project_reserve = _reserve;\n    vote_contract = _vote;\n  }\n\n  function strCmp(string memory s1, string memory s2) pure internal returns (bool){\n    return keccak256(abi.encodePacked(s1)) == keccak256(abi.encodePacked(s2));\n  }\n\n  function changeProjectName(uint64 id,\n                             string memory _name)\n    public\n    only_signer\n    is_majority_sig(id, \"changeProjectName\"){\n      if(!strCmp(project_name, _name)){\n        emit ChangeProjectInfo(\"name\", project_name, _name);\n        project_name = _name;\n      }\n  }\n  function changeProjectIntro(uint64 id,\n                             string memory _intro)\n    public\n    only_signer\n    is_majority_sig(id, \"changeProjectIntro\"){\n      if(!strCmp(project_intro, _intro)){\n        emit ChangeProjectInfo(\"intro\", project_intro, _intro);\n        project_intro = _intro;\n      }\n  }\n  function changeProjectLogo(uint64 id,\n                             string memory _logo)\n    public\n    only_signer\n    is_majority_sig(id, \"changeProjectLogo\"){\n      if(!strCmp(project_logo, _logo)){\n        emit ChangeProjectInfo(\"name\", project_logo, _logo);\n        project_logo = _logo ;\n      }\n  }\n  function changeProjectReserve(uint64 id,\n                             string memory _reserve)\n    public\n    only_signer\n    is_majority_sig(id, \"changeProjectReserve\"){\n      if(!strCmp(project_reserve, _reserve)){\n        emit ChangeProjectInfo(\"reserve\", project_reserve, _reserve);\n        project_reserve = _reserve;\n      }\n  }\n\n  function changeVoteContract(uint64 id, address _vote) public\n    only_signer\n    is_majority_sig(id, \"changeVoteContract\"){\n      emit ChangeVoteContract(vote_contract, _vote);\n      vote_contract = _vote;\n  }\n\n  function addExtraContract(uint64 id, string memory _name, address _contract) public\n    only_signer\n    is_majority_sig(id, \"addExtraContract\"){\n      require(_contract != address(0x0), \"address can't be 0\");\n      bytes32 hash = keccak256(abi.encodePacked(_name));\n      require(extra_contracts[hash] == address(0x0), \"already exist\");\n      extra_contracts[hash] = _contract;\n      extra_contract_names.push(_name);\n      emit AddExtraContract(_name, _contract);\n  }\n\n  function removeExtraContract(uint64 id, string memory _name) public\n    only_signer\n    is_majority_sig(id, \"removeExtraContract\"){\n      bytes32 hash = keccak256(abi.encodePacked(_name));\n      require(extra_contracts[hash] != address(0x0), \"not exist\");\n      address addr = extra_contracts[hash];\n      delete extra_contracts[hash];\n\n      for(uint i = 0; i < extra_contract_names.length; i++){\n        if(keccak256(abi.encodePacked(extra_contract_names[i])) == hash ){\n          extra_contract_names[i] = extra_contract_names[extra_contract_names.length - 1];\n          delete extra_contract_names[extra_contract_names.length - 1];\n          extra_contract_names.length -- ;\n          break;\n        }\n      }\n      emit RemoveExtraContract(_name, addr);\n  }\n\n  function getExtraContractNumber() public view returns (uint){\n    return extra_contract_names.length;\n  }\n  function getExtraContractInfo(uint i) public view returns(string memory name, address addr){\n    require(i < extra_contract_names.length, \"out of range\");\n    name = extra_contract_names[i];\n    addr = getExtraContractAddress(name);\n  }\n\n  function getExtraContractAddress(string memory _name) public view returns(address){\n      bytes32 hash = keccak256(abi.encodePacked(_name));\n      return extra_contracts[hash];\n  }\n\n  function claimStdTokens(uint64 id, address _token, address payable to) public only_signer is_majority_sig(id, \"claimStdTokens\"){\n    _claimStdTokens(_token, to);\n  }\n}\n\ncontract GTProjectFactory{\n\n  event CreateGTProject(address _addr, string _name, string _intro, string _logo, string _reserve,\n                       address _multisig, address _vote);\n\n  function createGTProject(string memory _name,\n                           string memory _intro,\n                           string memory _logo,\n                           string memory _reserve,\n                           address _multisig,\n                           address _vote) public returns(address){\n    GTProject gtp = new GTProject(_name, _intro, _logo, _reserve, _multisig, _vote);\n    emit CreateGTProject(address(gtp), _name, _intro, _logo, _reserve, _multisig, _vote);\n    return address(gtp);\n  }\n}\n",
  "sourcePath": "/Users/xuepeng/projects/gttoken-contract/contracts/cooperation/GTProject.sol",
  "compiler": {
    "name": "solc",
    "version": "0.5.10+commit.5a6ea5b1.Emscripten.clang"
  },
  "schemaVersion": "3.2.0",
  "updatedAt": "2020-06-25T04:05:24.464Z",
  "devdoc": {
    "methods": {}
  },
  "userdoc": {
    "methods": {}
  }
}