{
  "contractName": "InitIssueAndLockFactory",
  "abi": [
    {
      "anonymous": false,
      "inputs": [
        {
          "indexed": false,
          "name": "addr",
          "type": "address"
        }
      ],
      "name": "NewIssueAndLock",
      "type": "event"
    },
    {
      "constant": false,
      "inputs": [
        {
          "name": "_gt_contract",
          "type": "address"
        },
        {
          "name": "_unlock_block_number",
          "type": "uint256"
        },
        {
          "name": "_addrs",
          "type": "address[]"
        },
        {
          "name": "_amounts",
          "type": "uint256[]"
        },
        {
          "name": "_multisig",
          "type": "address"
        }
      ],
      "name": "createIssueAndLock",
      "outputs": [
        {
          "name": "",
          "type": "address"
        }
      ],
      "payable": false,
      "stateMutability": "nonpayable",
      "type": "function"
    }
  ],
  "bytecode": "0x608060405234801561001057600080fd5b50611215806100206000396000f3fe608060405234801561001057600080fd5b506004361061002b5760003560e01c8063f55c5f8314610030575b600080fd5b610177600480360360a081101561004657600080fd5b6001600160a01b038235169160208101359181019060608101604082013564010000000081111561007657600080fd5b82018360208201111561008857600080fd5b803590602001918460208302840111640100000000831117156100aa57600080fd5b91908080602002602001604051908101604052809392919081815260200183836020028082843760009201919091525092959493602081019350359150506401000000008111156100fa57600080fd5b82018360208201111561010c57600080fd5b8035906020019184602083028401116401000000008311171561012e57600080fd5b919080806020026020016040519081016040528093929190818152602001838360200280828437600092019190915250929550505090356001600160a01b031691506101939050565b604080516001600160a01b039092168252519081900360200190f35b60008086868686866040516101a7906102d4565b80866001600160a01b03166001600160a01b031681526020018581526020018060200180602001846001600160a01b03166001600160a01b03168152602001838103835286818151815260200191508051906020019060200280838360005b8381101561021e578181015183820152602001610206565b50505050905001838103825285818151815260200191508051906020019060200280838360005b8381101561025d578181015183820152602001610245565b50505050905001975050505050505050604051809103906000f080158015610289573d6000803e3d6000fd5b50604080516001600160a01b038316815290519192507fe20a81f7a3e250c0578658d3d0f43af36a5b60f23999dd90627f55ee080aa528919081900360200190a19695505050505050565b610eff806102e28339019056fe608060405234801561001057600080fd5b50604051610eff380380610eff833981810160405260a081101561003357600080fd5b815160208301516040840180519294919382019264010000000081111561005957600080fd5b8201602081018481111561006c57600080fd5b815185602082028301116401000000008211171561008957600080fd5b505092919060200180516401000000008111156100a557600080fd5b820160208101848111156100b857600080fd5b81518560208202830111640100000000821117156100d557600080fd5b50506020909101519092509050806001600160a01b0381166100f657600080fd5b600080546001600160a01b0319166001600160a01b0392909216919091179055825182511461012457600080fd5b43841161013057600080fd5b60005b83518110156101c157600384828151811061014a57fe5b60209081029190910181015182546001810184556000938452919092200180546001600160a01b0319166001600160a01b03909216919091179055825160029084908390811061019657fe5b6020908102919091018101518254600181810185556000948552929093209092019190915501610133565b5050600480546001949094556001600160a01b03909416610100026001600160a81b0319909316929092179092555050610cff806102006000396000f3fe608060405234801561001057600080fd5b50600436106100b45760003560e01c8063622346341161007157806362234634146102545780636ce5edff1461025c5780637569919d14610264578063bd7b3196146102a4578063d383f646146102ac578063fbbc54e9146102b4576100b4565b806310cb818c146100b9578063371eb669146100f157806344333ef31461012a57806345f0a44f146101685780634e8b4182146101975780635f1ff54914610238575b600080fd5b6100ef600480360360408110156100cf57600080fd5b50803567ffffffffffffffff1690602001356001600160a01b03166102bc565b005b61010e6004803603602081101561010757600080fd5b5035610578565b604080516001600160a01b039092168252519081900360200190f35b6100ef6004803603606081101561014057600080fd5b5067ffffffffffffffff813516906001600160a01b036020820135811691604001351661059f565b6101856004803603602081101561017e57600080fd5b50356108bd565b60408051918252519081900360200190f35b61019f6108db565b604051808060200180602001838103835285818151815260200191508051906020019060200280838360005b838110156101e35781810151838201526020016101cb565b50505050905001838103825284818151815260200191508051906020019060200280838360005b8381101561022257818101518382015260200161020a565b5050505090500194505050505060405180910390f35b610240610998565b604080519115158252519081900360200190f35b6101856109a1565b61010e6109a7565b6102816004803603602081101561027a57600080fd5b50356109b6565b604080516001600160a01b03909316835260208301919091528051918290030190f35b610185610a00565b6100ef610a06565b61010e610c8f565b60005460408051629764fd60e61b815233600482015290516001600160a01b03909216916325d93f4091602480820192602092909190829003018186803b15801561030657600080fd5b505afa15801561031a573d6000803e3d6000fd5b505050506040513d602081101561033057600080fd5b505161036d5760405162461bcd60e51b8152600401808060200182810382526027815260200180610ca46027913960400191505060405180910390fd5b81604051806040016040528060118152602001707472616e736665725f6d756c746973696760781b815250600080356001600160e01b03191660003660405160200180846001600160e01b0319166001600160e01b03191681526004018383808284376040805191909301818103601f190182529283905280516020918201206000805463d253eced60e01b865267ffffffffffffffff8d16600487019081526044870184905233606488018190526080602489019081528e5160848a01528e51959d506001600160a01b039093169b5063d253eced9a508e99508d98508c979096509094919360a490910192918801918190849084905b8381101561047d578181015183820152602001610465565b50505050905090810190601f1680156104aa5780820380516001836020036101000a031916815260200191505b5095505050505050602060405180830381600087803b1580156104cc57600080fd5b505af11580156104e0573d6000803e3d6000fd5b505050506040513d60208110156104f657600080fd5b505115610571576001600160a01b03841661051057600080fd5b600080546001600160a01b038681166001600160a01b0319831681179093556040805191909216808252602082019390935281517fd30bbf8c51d656e1f0bad4c64bc25c133cb2e626cf2791746b0f083b38ea3fdd929181900390910190a1505b5050505050565b6003818154811061058557fe5b6000918252602090912001546001600160a01b0316905081565b60005460408051629764fd60e61b815233600482015290516001600160a01b03909216916325d93f4091602480820192602092909190829003018186803b1580156105e957600080fd5b505afa1580156105fd573d6000803e3d6000fd5b505050506040513d602081101561061357600080fd5b50516106505760405162461bcd60e51b8152600401808060200182810382526027815260200180610ca46027913960400191505060405180910390fd5b82604051806040016040528060078152602001667265706c61636560c81b815250600080356001600160e01b03191660003660405160200180846001600160e01b0319166001600160e01b03191681526004018383808284376040805191909301818103601f190182529283905280516020918201206000805463d253eced60e01b865267ffffffffffffffff8d16600487019081526044870184905233606488018190526080602489019081528e5160848a01528e51959d506001600160a01b039093169b5063d253eced9a508e99508d98508c979096509094919360a490910192918801918190849084905b8381101561075657818101518382015260200161073e565b50505050905090810190601f1680156107835780820380516001836020036101000a031916815260200191505b5095505050505050602060405180830381600087803b1580156107a557600080fd5b505af11580156107b9573d6000803e3d6000fd5b505050506040513d60208110156107cf57600080fd5b5051156108b55760045460ff161561081f576040805162461bcd60e51b815260206004820152600e60248201526d69737375656420616c726561647960901b604482015290519081900360640190fd5b6040805163ac4905a760e01b8152600360048201526001600160a01b03808816602483015286166044820152905173__AddressArray__________________________9163ac4905a7916064808301926020929190829003018186803b15801561088857600080fd5b505af415801561089c573d6000803e3d6000fd5b505050506040513d60208110156108b257600080fd5b50505b505050505050565b600281815481106108ca57fe5b600091825260209091200154905081565b606080600360028180548060200260200160405190810160405280929190818152602001828054801561093757602002820191906000526020600020905b81546001600160a01b03168152600190910190602001808311610919575b505050505091508080548060200260200160405190810160405280929190818152602001828054801561098957602002820191906000526020600020905b815481526020019060010190808311610975575b50505050509050915091509091565b60045460ff1681565b60035490565b6000546001600160a01b031681565b600080600383815481106109c657fe5b600091825260209091200154600280546001600160a01b03909216935090849081106109ee57fe5b90600052602060002001549050915091565b60015481565b60045460ff1615610a4f576040805162461bcd60e51b815260206004820152600e60248201526d69737375656420616c726561647960901b604482015290519081900360640190fd5b436001541115610a9c576040805162461bcd60e51b81526020600482015260136024820152726e6f7420726561647920746f20756e6c6f636b60681b604482015290519081900360640190fd5b60045461010090046001600160a01b03166000805b600354811015610baa57826001600160a01b031663827f32c060038381548110610ad757fe5b600091825260209091200154600280546001600160a01b039092169185908110610afd57fe5b90600052602060002001546040518363ffffffff1660e01b815260040180836001600160a01b03166001600160a01b0316815260200182815260200192505050602060405180830381600087803b158015610b5757600080fd5b505af1158015610b6b573d6000803e3d6000fd5b505050506040513d6020811015610b8157600080fd5b50506002805482908110610b9157fe5b6000918252602090912001549190910190600101610ab1565b506004805460ff1916600117905560408051828152606060208201818152600380549284018390527fcff377260548b5caaa69e7bc5cf7931138c3ecd84f9509e2b5f22c4825176d13948694919360029391830190608084019086908015610c3b57602002820191906000526020600020905b81546001600160a01b03168152600190910190602001808311610c1d575b50508381038252848181548152602001915080548015610c7a57602002820191906000526020600020905b815481526020019060010190808311610c66575b50509550505050505060405180910390a15050565b60045461010090046001600160a01b03168156fe6f6e6c792061207369676e65722063616e2063616c6c20696e204d756c7469536967546f6f6c73a265627a7a7230582000be4ce93cde140d949db254dc7ec9f8580ca8ec9a44f0a77ce2923b9b2da7bf64736f6c634300050a0032a265627a7a723058203f834a288e1340f703bfb4131f2becd876f405d56aff32dcfe4a246a591da65d64736f6c634300050a0032",
  "source": "pragma solidity >=0.4.21 <0.6.0;\nimport \"./utils/TokenClaimer.sol\";\nimport \"./MultiSigTools.sol\";\nimport \"./utils/Arrays.sol\";\n\ncontract GTTokenInterface is TransferableToken{\n    function destroyTokens(address _owner, uint _amount) public returns (bool);\n    function generateTokens(address _owner, uint _amount) public returns (bool);\n}\n\ncontract InitIssueAndLock is MultiSigTools{\n  using AddressArray for address[];\n\n  uint public unlock_block_number;\n  uint[] public amounts;\n  address[] public addrs;\n  bool public issued;\n  address public gt_contract;\n\n  event Issue(uint total, address[] addrs, uint[] amounts);\n\n  constructor(address _gt_contract, uint _unlock_block_number, address[] memory _addrs, uint[] memory _amounts, address _multisig) MultiSigTools(_multisig) public {\n    require(_amounts.length == _addrs.length);\n    require(_unlock_block_number > block.number);\n    for(uint i = 0; i < _addrs.length; i++){\n      addrs.push(_addrs[i]);\n      amounts.push(_amounts[i]);\n    }\n    issued = false;\n    unlock_block_number = _unlock_block_number;\n    gt_contract = _gt_contract;\n  }\n\n  function issue() public{\n    require(issued == false, \"issued already\");\n    require(unlock_block_number <= block.number, \"not ready to unlock\");\n\n    GTTokenInterface token = GTTokenInterface(gt_contract);\n\n    uint total = 0;\n    for(uint i = 0; i < addrs.length; i++){\n      token.generateTokens(addrs[i], amounts[i]);\n      total = total + amounts[i];\n    }\n    issued = true;\n    emit Issue(total, addrs, amounts);\n  }\n\n  function replace(uint64 id, address old_addr, address new_addr) public only_signer is_majority_sig(id, \"replace\"){\n    require(issued == false, \"issued already\");\n    addrs.replace(old_addr, new_addr);\n  }\n\n  function get_number_of_addrs() public view returns(uint){\n    return addrs.length;\n  }\n\n  function get_addr_amount(uint i) public view returns(address addr, uint amount){\n    addr = addrs[i];\n    amount = amounts[i];\n  }\n\n  function get_init_and_lock_status() public view returns(address[] memory , uint[] memory ){\n    return (addrs, amounts);\n  }\n}\n\ncontract InitIssueAndLockFactory{\n\n  event NewIssueAndLock(address addr);\n\n  function createIssueAndLock(address _gt_contract,\n                              uint _unlock_block_number,\n                              address[] memory _addrs,\n                             uint[] memory _amounts,\n                             address _multisig) public returns(InitIssueAndLock){\n    InitIssueAndLock c = new InitIssueAndLock(_gt_contract,\n                                             _unlock_block_number,\n                                             _addrs,\n                                             _amounts,\n                                             _multisig);\n    emit NewIssueAndLock(address(c));\n    return c;\n  }\n}\n",
  "sourcePath": "/Users/xuepeng/projects/gttoken-contract/contracts/InitLock.sol",
  "compiler": {
    "name": "solc",
    "version": "0.5.10+commit.5a6ea5b1.Emscripten.clang"
  },
  "schemaVersion": "3.0.11",
  "updatedAt": "2020-04-27T14:47:29.800Z",
  "devdoc": {
    "methods": {}
  },
  "userdoc": {
    "methods": {}
  }
}