{
  "contractName": "MultiSigTools",
  "abi": [
    {
      "constant": true,
      "inputs": [],
      "name": "multisig_contract",
      "outputs": [
        {
          "name": "",
          "type": "address"
        }
      ],
      "payable": false,
      "stateMutability": "view",
      "type": "function"
    },
    {
      "inputs": [
        {
          "name": "_contract",
          "type": "address"
        }
      ],
      "payable": false,
      "stateMutability": "nonpayable",
      "type": "constructor"
    },
    {
      "anonymous": false,
      "inputs": [
        {
          "indexed": false,
          "name": "_old",
          "type": "address"
        },
        {
          "indexed": false,
          "name": "_new",
          "type": "address"
        }
      ],
      "name": "TransferMultiSig",
      "type": "event"
    },
    {
      "constant": false,
      "inputs": [
        {
          "name": "id",
          "type": "uint64"
        },
        {
          "name": "_contract",
          "type": "address"
        }
      ],
      "name": "transfer_multisig",
      "outputs": [],
      "payable": false,
      "stateMutability": "nonpayable",
      "type": "function"
    }
  ],
  "bytecode": "0x608060405234801561001057600080fd5b506040516104363803806104368339818101604052602081101561003357600080fd5b50516001600160a01b03811661004857600080fd5b600080546001600160a01b039092166001600160a01b03199092169190911790556103be806100786000396000f3fe608060405234801561001057600080fd5b50600436106100365760003560e01c806310cb818c1461003b5780636ce5edff14610073575b600080fd5b6100716004803603604081101561005157600080fd5b50803567ffffffffffffffff1690602001356001600160a01b0316610097565b005b61007b610353565b604080516001600160a01b039092168252519081900360200190f35b60005460408051629764fd60e61b815233600482015290516001600160a01b03909216916325d93f4091602480820192602092909190829003018186803b1580156100e157600080fd5b505afa1580156100f5573d6000803e3d6000fd5b505050506040513d602081101561010b57600080fd5b50516101485760405162461bcd60e51b81526004018080602001828103825260278152602001806103636027913960400191505060405180910390fd5b81604051806040016040528060118152602001707472616e736665725f6d756c746973696760781b815250600080356001600160e01b03191660003660405160200180846001600160e01b0319166001600160e01b03191681526004018383808284376040805191909301818103601f190182529283905280516020918201206000805463d253eced60e01b865267ffffffffffffffff8d16600487019081526044870184905233606488018190526080602489019081528e5160848a01528e51959d506001600160a01b039093169b5063d253eced9a508e99508d98508c979096509094919360a490910192918801918190849084905b83811015610258578181015183820152602001610240565b50505050905090810190601f1680156102855780820380516001836020036101000a031916815260200191505b5095505050505050602060405180830381600087803b1580156102a757600080fd5b505af11580156102bb573d6000803e3d6000fd5b505050506040513d60208110156102d157600080fd5b50511561034c576001600160a01b0384166102eb57600080fd5b600080546001600160a01b038681166001600160a01b0319831681179093556040805191909216808252602082019390935281517fd30bbf8c51d656e1f0bad4c64bc25c133cb2e626cf2791746b0f083b38ea3fdd929181900390910190a1505b5050505050565b6000546001600160a01b03168156fe6f6e6c792061207369676e65722063616e2063616c6c20696e204d756c7469536967546f6f6c73a265627a7a723058207c5db1caec4f3a0554caf21d8f7a6263b90d10f47df6f3715ccc504872e543f864736f6c634300050a0032",
  "source": "pragma solidity >=0.4.21 <0.6.0;\n\ncontract MultiSigInterface{\n  function update_and_check_reach_majority(uint64 id, string memory name, bytes32 hash, address sender) public returns (bool);\n  function is_signer(address addr) public view returns(bool);\n}\n\ncontract MultiSigTools{\n  MultiSigInterface public multisig_contract;\n  constructor(address _contract) public{\n    require(_contract!= address(0x0));\n    multisig_contract = MultiSigInterface(_contract);\n  }\n\n  modifier only_signer{\n    require(multisig_contract.is_signer(msg.sender), \"only a signer can call in MultiSigTools\");\n    _;\n  }\n\n  modifier is_majority_sig(uint64 id, string memory name) {\n    bytes32 hash = keccak256(abi.encodePacked(msg.sig, msg.data));\n    if(multisig_contract.update_and_check_reach_majority(id, name, hash, msg.sender)){\n      _;\n    }\n  }\n\n  modifier is_majority_sig_with_hash(uint64 id, string memory name, bytes32 hash) {\n    if(multisig_contract.update_and_check_reach_majority(id, name, hash, msg.sender)){\n      _;\n    }\n  }\n\n  event TransferMultiSig(address _old, address _new);\n\n  function transfer_multisig(uint64 id, address _contract) public only_signer\n  is_majority_sig(id, \"transfer_multisig\"){\n    require(_contract != address(0x0));\n    address old = address(multisig_contract);\n    multisig_contract = MultiSigInterface(_contract);\n    emit TransferMultiSig(old, _contract);\n  }\n}\n",
  "sourcePath": "/Users/xuepeng/projects/gttoken-contract/contracts/MultiSigTools.sol",
  "compiler": {
    "name": "solc",
    "version": "0.5.10+commit.5a6ea5b1.Emscripten.clang"
  },
  "schemaVersion": "3.2.0",
  "updatedAt": "2020-06-25T04:05:24.429Z",
  "devdoc": {
    "methods": {}
  },
  "userdoc": {
    "methods": {}
  }
}