{
  "contractName": "Pausable",
  "abi": [
    {
      "inputs": [],
      "payable": false,
      "stateMutability": "nonpayable",
      "type": "constructor"
    },
    {
      "anonymous": false,
      "inputs": [
        {
          "indexed": false,
          "name": "item",
          "type": "bytes32"
        }
      ],
      "name": "Paused",
      "type": "event"
    },
    {
      "anonymous": false,
      "inputs": [
        {
          "indexed": false,
          "name": "item",
          "type": "bytes32"
        }
      ],
      "name": "Unpaused",
      "type": "event"
    },
    {
      "constant": true,
      "inputs": [],
      "name": "is_paused",
      "outputs": [
        {
          "name": "",
          "type": "bool"
        }
      ],
      "payable": false,
      "stateMutability": "view",
      "type": "function"
    },
    {
      "constant": true,
      "inputs": [
        {
          "name": "item",
          "type": "bytes32"
        }
      ],
      "name": "is_item_paused",
      "outputs": [
        {
          "name": "",
          "type": "bool"
        }
      ],
      "payable": false,
      "stateMutability": "view",
      "type": "function"
    },
    {
      "constant": true,
      "inputs": [],
      "name": "is_not_paused",
      "outputs": [
        {
          "name": "",
          "type": "bool"
        }
      ],
      "payable": false,
      "stateMutability": "view",
      "type": "function"
    },
    {
      "constant": true,
      "inputs": [
        {
          "name": "item",
          "type": "bytes32"
        }
      ],
      "name": "is_item_not_paused",
      "outputs": [
        {
          "name": "",
          "type": "bool"
        }
      ],
      "payable": false,
      "stateMutability": "view",
      "type": "function"
    }
  ],
  "bytecode": "0x608060405234801561001057600080fd5b506101b2806100206000396000f3fe608060405234801561001057600080fd5b506004361061004c5760003560e01c80631abf0631146100515780632402857514610082578063354dc68d1461008a5780639d4f8aa9146100a7575b600080fd5b61006e6004803603602081101561006757600080fd5b50356100af565b604080519115158252519081900360200190f35b61006e6100c4565b61006e600480360360208110156100a057600080fd5b5035610116565b61006e61012c565b60009081526020819052604090205460ff1690565b7fe55fa852ec66688fa70405e771908c66cc3036301008016aac1cf4f9d2cfd27e60009081526020527f5c75009a41da41cdfd5c4cb6364ba77b0d64b13d5b34e14ce058d2eaf29b61c95460ff161590565b60009081526020819052604090205460ff161590565b7fe55fa852ec66688fa70405e771908c66cc3036301008016aac1cf4f9d2cfd27e60009081526020527f5c75009a41da41cdfd5c4cb6364ba77b0d64b13d5b34e14ce058d2eaf29b61c95460ff169056fea265627a7a72305820cc49afe1a4ccf37bdd78e3274b5a2bb2678b8ed6deef77e01bcc9501e299e98564736f6c634300050a0032",
  "source": "pragma solidity >=0.4.21 <0.6.0;\n\ncontract Pausable{\n  /* Hardcoded constants to save gas\n   *     bytes32 private constant DEFAULT = keccak256(\"_internal_default_status\");\n   *         */\n  bytes32 private constant DEFAULT = 0xe55fa852ec66688fa70405e771908c66cc3036301008016aac1cf4f9d2cfd27e;\n\n  mapping (bytes32 => bool) private pause_status;\n\n  event Paused(bytes32 item);\n  event Unpaused(bytes32 item);\n\n  constructor() public{\n  }\n\n  modifier when_paused(){\n    require(pause_status[DEFAULT]== true, \"require paused\");\n    _;\n  }\n  modifier when_item_paused(bytes32 item){\n    require(pause_status[item]== true, \"require item paused\");\n    _;\n  }\n\n  modifier when_not_paused(){\n    require(pause_status[DEFAULT]== false, \"require not paused\");\n    _;\n  }\n  modifier when_item_not_paused(bytes32 item){\n    require(pause_status[item]== false, \"require item not paused\");\n    _;\n  }\n\n  function is_paused() public view returns(bool){\n    return pause_status[DEFAULT];\n  }\n\n  function is_item_paused(bytes32 item) public view returns(bool){\n    return pause_status[item];\n  }\n\n  function is_not_paused() public view returns (bool){\n    return !pause_status[DEFAULT];\n  }\n\n  function is_item_not_paused(bytes32 item) public view returns (bool){\n    return !pause_status[item];\n  }\n\n  function _pause() internal when_not_paused {\n    pause_status[DEFAULT] = true;\n    emit Paused(DEFAULT);\n  }\n\n  function _pause_item(bytes32 item) internal when_item_not_paused(item) {\n    pause_status[item] = true;\n    emit Paused(item);\n  }\n\n  function _unpause() internal when_paused{\n    pause_status[DEFAULT] = false;\n    emit Unpaused(DEFAULT);\n  }\n\n  function _unpause_item(bytes32 item) internal when_item_paused(item) {\n    pause_status[item] = false;\n    emit Unpaused(item);\n  }\n}\n\n",
  "sourcePath": "/Users/xuepeng/projects/gttoken-contract/contracts/Pausable.sol",
  "compiler": {
    "name": "solc",
    "version": "0.5.10+commit.5a6ea5b1.Emscripten.clang"
  },
  "schemaVersion": "3.0.11",
  "updatedAt": "2020-04-27T14:47:29.805Z",
  "devdoc": {
    "methods": {}
  },
  "userdoc": {
    "methods": {}
  }
}