{
  "contractName": "SafeMath",
  "abi": [
    {
      "constant": true,
      "inputs": [
        {
          "name": "a",
          "type": "uint256"
        },
        {
          "name": "b",
          "type": "uint256"
        }
      ],
      "name": "safeAdd",
      "outputs": [
        {
          "name": "c",
          "type": "uint256"
        }
      ],
      "payable": false,
      "stateMutability": "pure",
      "type": "function"
    },
    {
      "constant": true,
      "inputs": [
        {
          "name": "a",
          "type": "uint256"
        },
        {
          "name": "b",
          "type": "uint256"
        }
      ],
      "name": "safeSub",
      "outputs": [
        {
          "name": "c",
          "type": "uint256"
        }
      ],
      "payable": false,
      "stateMutability": "pure",
      "type": "function"
    },
    {
      "constant": true,
      "inputs": [
        {
          "name": "a",
          "type": "uint256"
        },
        {
          "name": "b",
          "type": "uint256"
        }
      ],
      "name": "safeMul",
      "outputs": [
        {
          "name": "c",
          "type": "uint256"
        }
      ],
      "payable": false,
      "stateMutability": "pure",
      "type": "function"
    },
    {
      "constant": true,
      "inputs": [
        {
          "name": "a",
          "type": "uint256"
        },
        {
          "name": "b",
          "type": "uint256"
        }
      ],
      "name": "safeDiv",
      "outputs": [
        {
          "name": "c",
          "type": "uint256"
        }
      ],
      "payable": false,
      "stateMutability": "pure",
      "type": "function"
    }
  ],
  "bytecode": "0x610251610026600b82828239805160001a60731461001957fe5b30600052607381538281f3fe73000000000000000000000000000000000000000030146080604052600436106100565760003560e01c8063a293d1e81461005b578063b5931f7c14610090578063d05c78da146100b3578063e6cb9013146100d6575b600080fd5b61007e6004803603604081101561007157600080fd5b50803590602001356100f9565b60408051918252519081900360200190f35b61007e600480360360408110156100a657600080fd5b508035906020013561013c565b61007e600480360360408110156100c957600080fd5b5080359060200135610189565b61007e600480360360408110156100ec57600080fd5b50803590602001356101de565b600082821115610136576040805162461bcd60e51b815260206004820152600360248201526239bab160e91b604482015290519081900360640190fd5b50900390565b6000808211610178576040805162461bcd60e51b81526020600482015260036024820152623234bb60e91b604482015290519081900360640190fd5b81838161018157fe5b049392505050565b8181028215806101a157508183828161019e57fe5b04145b6101d8576040805162461bcd60e51b81526020600482015260036024820152621b5d5b60ea1b604482015290519081900360640190fd5b92915050565b818101828110156101d8576040805162461bcd60e51b815260206004820152600360248201526218591960ea1b604482015290519081900360640190fdfea265627a7a7230582044fd1f1bd30acad477f650b3880f426c533cc682d4a9ea84ea0f9dee9d2a4eb364736f6c634300050a0032",
  "source": "pragma solidity >=0.4.21 <0.6.0;\n\nlibrary SafeMath {\n    function safeAdd(uint a, uint b) public pure returns (uint c) {\n        c = a + b;\n        require(c >= a, \"add\");\n    }\n    function safeSub(uint a, uint b) public pure returns (uint c) {\n        require(b <= a, \"sub\");\n        c = a - b;\n    }\n    function safeMul(uint a, uint b) public pure returns (uint c) {\n        c = a * b;\n        require(a == 0 || c / a == b, \"mul\");\n    }\n    function safeDiv(uint a, uint b) public pure returns (uint c) {\n        require(b > 0, \"div\");\n        c = a / b;\n    }\n}\n",
  "sourcePath": "/Users/xuepeng/projects/gttoken-contract/contracts/utils/SafeMath.sol",
  "compiler": {
    "name": "solc",
    "version": "0.5.10+commit.5a6ea5b1.Emscripten.clang"
  },
  "schemaVersion": "3.0.11",
  "updatedAt": "2020-04-27T14:47:29.666Z",
  "devdoc": {
    "methods": {}
  },
  "userdoc": {
    "methods": {}
  }
}