{
  "contractName": "SimpleMultiSigVoteFactory",
  "abi": [
    {
      "anonymous": false,
      "inputs": [
        {
          "indexed": false,
          "name": "addr",
          "type": "address"
        }
      ],
      "name": "NewSimpleMultiSigVote",
      "type": "event"
    },
    {
      "constant": false,
      "inputs": [
        {
          "name": "_multisig",
          "type": "address"
        }
      ],
      "name": "createSimpleMultiSigVote",
      "outputs": [
        {
          "name": "",
          "type": "address"
        }
      ],
      "payable": false,
      "stateMutability": "nonpayable",
      "type": "function"
    }
  ],
  "bytecode": "0x608060405234801561001057600080fd5b50611db3806100206000396000f3fe608060405234801561001057600080fd5b506004361061002b5760003560e01c8063c86a98e214610030575b600080fd5b6100566004803603602081101561004657600080fd5b50356001600160a01b0316610072565b604080516001600160a01b039092168252519081900360200190f35b60008082604051610082906100f6565b6001600160a01b03909116815260405190819003602001906000f0801580156100af573d6000803e3d6000fd5b50604080516001600160a01b038316815290519192507fef672f9aab27ea410c7e722790e6880f08a8bf9647b51109838d8480a2c723f2919081900360200190a192915050565b611c7b806101048339019056fe608060405234801561001057600080fd5b50604051611c7b380380611c7b8339818101604052602081101561003357600080fd5b5051806001600160a01b03811661004957600080fd5b600080546001600160a01b039092166001600160a01b0319909216919091178155600281905560035550611bf9806100826000396000f3fe608060405234801561001057600080fd5b50600436106100b45760003560e01c80635155794811610071578063515579481461036e5780636ce5edff146103765780638e9248961461039a578063d1de6816146103c3578063d459d03e146104f0578063d8fc8cfc14610582576100b4565b80630c3129fe146100b957806310cb818c146100f9578063296364c01461012f578063368e28dd146101605780634b07a7b6146102985780634cd44461146102b2575b600080fd5b6100f7600480360360608110156100cf57600080fd5b5067ffffffffffffffff813516906001600160a01b036020820135811691604001351661063b565b005b6100f76004803603604081101561010f57600080fd5b50803567ffffffffffffffff1690602001356001600160a01b031661088b565b61014c6004803603602081101561014557600080fd5b5035610b47565b604080519115158252519081900360200190f35b61017d6004803603602081101561017657600080fd5b5035610b61565b604051808815151515815260200187151515158152602001868152602001858152602001846001600160a01b03166001600160a01b031681526020018060200180602001838103835285818151815260200191508051906020019080838360005b838110156101f65781810151838201526020016101de565b50505050905090810190601f1680156102235780820380516001836020036101000a031916815260200191505b50838103825284518152845160209182019186019080838360005b8381101561025657818101518382015260200161023e565b50505050905090810190601f1680156102835780820380516001836020036101000a031916815260200191505b50995050505050505050505060405180910390f35b6102a0610cc0565b60408051918252519081900360200190f35b61014c600480360360608110156102c857600080fd5b67ffffffffffffffff823516916020810135918101906060810160408201356401000000008111156102f957600080fd5b82018360208201111561030b57600080fd5b8035906020019184600183028401116401000000008311171561032d57600080fd5b91908080601f016020809104026020016040519081016040528093929190818152602001838380828437600092019190915250929550610cc6945050505050565b6102a06110db565b61037e6110e1565b604080516001600160a01b039092168252519081900360200190f35b61014c600480360360608110156103b057600080fd5b50803590602081013590604001356110f0565b6103e0600480360360208110156103d957600080fd5b503561126e565b6040518087151515158152602001868152602001858152602001846001600160a01b03166001600160a01b031681526020018060200180602001838103835285818151815260200191508051906020019080838360005b8381101561044f578181015183820152602001610437565b50505050905090810190601f16801561047c5780820380516001836020036101000a031916815260200191505b50838103825284518152845160209182019186019080838360005b838110156104af578181015183820152602001610497565b50505050905090810190601f1680156104dc5780820380516001836020036101000a031916815260200191505b509850505050505050505060405180910390f35b61050d6004803603602081101561050657600080fd5b5035611442565b6040805160208082528351818301528351919283929083019185019080838360005b8381101561054757818101518382015260200161052f565b50505050905090810190601f1680156105745780820380516001836020036101000a031916815260200191505b509250505060405180910390f35b61014c6004803603608081101561059857600080fd5b813591602081013591604082013591908101906080810160608201356401000000008111156105c657600080fd5b8201836020820111156105d857600080fd5b803590602001918460018302840111640100000000831117156105fa57600080fd5b91908080601f01602080910402602001604051908101604052809392919081815260200183838082843760009201919091525092955061158e945050505050565b60005460408051629764fd60e61b815233600482015290516001600160a01b03909216916325d93f4091602480820192602092909190829003018186803b15801561068557600080fd5b505afa158015610699573d6000803e3d6000fd5b505050506040513d60208110156106af57600080fd5b50516106ec5760405162461bcd60e51b8152600401808060200182810382526027815260200180611b9e6027913960400191505060405180910390fd5b826040518060400160405280600e81526020016d636c61696d537464546f6b656e7360901b815250600080356001600160e01b03191660003660405160200180846001600160e01b0319166001600160e01b03191681526004018383808284376040805191909301818103601f190182529283905280516020918201206000805463d253eced60e01b865267ffffffffffffffff8d16600487019081526044870184905233606488018190526080602489019081528e5160848a01528e51959d506001600160a01b039093169b5063d253eced9a508e99508d98508c979096509094919360a490910192918801918190849084905b838110156107f95781810151838201526020016107e1565b50505050905090810190601f1680156108265780820380516001836020036101000a031916815260200191505b5095505050505050602060405180830381600087803b15801561084857600080fd5b505af115801561085c573d6000803e3d6000fd5b505050506040513d602081101561087257600080fd5b50511561088357610883858561184d565b505050505050565b60005460408051629764fd60e61b815233600482015290516001600160a01b03909216916325d93f4091602480820192602092909190829003018186803b1580156108d557600080fd5b505afa1580156108e9573d6000803e3d6000fd5b505050506040513d60208110156108ff57600080fd5b505161093c5760405162461bcd60e51b8152600401808060200182810382526027815260200180611b9e6027913960400191505060405180910390fd5b81604051806040016040528060118152602001707472616e736665725f6d756c746973696760781b815250600080356001600160e01b03191660003660405160200180846001600160e01b0319166001600160e01b03191681526004018383808284376040805191909301818103601f190182529283905280516020918201206000805463d253eced60e01b865267ffffffffffffffff8d16600487019081526044870184905233606488018190526080602489019081528e5160848a01528e51959d506001600160a01b039093169b5063d253eced9a508e99508d98508c979096509094919360a490910192918801918190849084905b83811015610a4c578181015183820152602001610a34565b50505050905090810190601f168015610a795780820380516001836020036101000a031916815260200191505b5095505050505050602060405180830381600087803b158015610a9b57600080fd5b505af1158015610aaf573d6000803e3d6000fd5b505050506040513d6020811015610ac557600080fd5b505115610b40576001600160a01b038416610adf57600080fd5b600080546001600160a01b038681166001600160a01b0319831681179093556040805191909216808252602082019390935281517fd30bbf8c51d656e1f0bad4c64bc25c133cb2e626cf2791746b0f083b38ea3fdd929181900390910190a1505b5050505050565b600090815260016020526040902054610100900460ff1690565b60016020818152600092835260409283902080548184015460028084015460038501546004860180548a516101009a8216158b026000190190911694909404601f8101899004890285018901909a5289845260ff8087169a9990960490951697939691956001600160a01b039091169490939091830182828015610c265780601f10610bfb57610100808354040283529160200191610c26565b820191906000526020600020905b815481529060010190602001808311610c0957829003601f168201915b5050505060058301805460408051602060026001851615610100026000190190941693909304601f8101849004840282018401909252818152949594935090830182828015610cb65780601f10610c8b57610100808354040283529160200191610cb6565b820191906000526020600020905b815481529060010190602001808311610c9957829003601f168201915b5050505050905087565b60025481565b600082815260016020526040812054839060ff16610d1c576040805162461bcd60e51b815260206004820152600e60248201526d1d9bdd19481b9bdd08195e1a5cdd60921b604482015290519081900360640190fd5b60005460408051629764fd60e61b815233600482015290516001600160a01b03909216916325d93f4091602480820192602092909190829003018186803b158015610d6657600080fd5b505afa158015610d7a573d6000803e3d6000fd5b505050506040513d6020811015610d9057600080fd5b5051610dcd5760405162461bcd60e51b8152600401808060200182810382526027815260200180611b9e6027913960400191505060405180910390fd5b8460405180604001604052806004815260200163766f746560e01b815250600080356001600160e01b03191660003660405160200180846001600160e01b0319166001600160e01b03191681526004018383808284376040805191909301818103601f190182529283905280516020918201206000805463d253eced60e01b865267ffffffffffffffff8d16600487019081526044870184905233606488018190526080602489019081528e5160848a01528e51959d506001600160a01b039093169b5063d253eced9a508e99508d98508c979096509094919360a490910192918801918190849084905b83811015610ed0578181015183820152602001610eb8565b50505050905090810190601f168015610efd5780820380516001836020036101000a031916815260200191505b5095505050505050602060405180830381600087803b158015610f1f57600080fd5b505af1158015610f33573d6000803e3d6000fd5b505050506040513d6020811015610f4957600080fd5b5051156110d057600087815260016020819052604090912090810154431015610fae576040805162461bcd60e51b81526020600482015260126024820152711d9bdd19481b9bdd081cdd185c9d081e595d60721b604482015290519081900360640190fd5b4381600201541015610ffa576040805162461bcd60e51b815260206004820152601060248201526f1d9bdd1948185b1c9958591e48195b9960821b604482015290519081900360640190fd5b865161100f90600583019060208a0190611a8a565b50805461ff0019166101001781556040805189815260208082018381528a519383019390935289517f2bd50945b22a74ab1ec65bbece818e35f750adc384baa4df419dcb3a3048cc42938c938c939092606084019185019080838360005b8381101561108557818101518382015260200161106d565b50505050905090810190601f1680156110b25780820380516001836020036101000a031916815260200191505b50935050505060405180910390a15060028054600190810190915594505b505050509392505050565b60035481565b6000546001600160a01b031681565b60008381526001602052604081205460ff1615611144576040805162461bcd60e51b815260206004820152600d60248201526c185b1c9958591e48195e1a5cdd609a1b604482015290519081900360640190fd5b43821161118f576040805162461bcd60e51b8152602060048201526014602482015273195b99081a195a59da1d081d1bdbc81cdb585b1b60621b604482015290519081900360640190fd5b8282116111cd5760405162461bcd60e51b815260040180806020018281038252602e815260200180611b70602e913960400191505060405180910390fd5b826111d6574392505b600084815260016020818152604092839020805461ff001960ff19909116841716815580830187905560028101869055600380820180546001600160a01b0319163317905580549093019092558251878152908101869052808301859052915190917f4df25fe128c40cfabb61a9a1757efbeebcb01ba950a185379c32c05eaa8fd283919081900360600190a1506001949350505050565b6000818152600160205260408120548190819081906060908190879060ff166112cf576040805162461bcd60e51b815260206004820152600e60248201526d1d9bdd19481b9bdd08195e1a5cdd60921b604482015290519081900360640190fd5b60008881526001602081815260409283902080548184015460028084015460038501546004860180548a516101009a8216158b026000190190911694909404601f8101899004890285018901909a5289845295989790940460ff1696929590946001600160a01b0390941693926005890192918491908301828280156113965780601f1061136b57610100808354040283529160200191611396565b820191906000526020600020905b81548152906001019060200180831161137957829003601f168201915b5050845460408051602060026001851615610100026000190190941693909304601f8101849004840282018401909252818152959750869450925084019050828280156114245780601f106113f957610100808354040283529160200191611424565b820191906000526020600020905b81548152906001019060200180831161140757829003601f168201915b50505050509050975097509750975097509750505091939550919395565b60008181526001602052604090205460609060ff16611494576040805162461bcd60e51b81526020600482015260096024820152681b9bdd08195e1a5cdd60ba1b604482015290519081900360640190fd5b600082815260016020526040902054610100900460ff166114ed576040805162461bcd60e51b815260206004820152600e60248201526d1b9bdd0819195d195c9b5a5b995960921b604482015290519081900360640190fd5b60008281526001602081815260409283902060050180548451600294821615610100026000190190911693909304601f81018390048302840183019094528383529192908301828280156115825780601f1061155757610100808354040283529160200191611582565b820191906000526020600020905b81548152906001019060200180831161156557829003601f168201915b50505050509050919050565b600084815260016020526040812054859060ff166115e4576040805162461bcd60e51b815260206004820152600e60248201526d1d9bdd19481b9bdd08195e1a5cdd60921b604482015290519081900360640190fd5b600086815260016020526040902060038101546001600160a01b0316331461163d5760405162461bcd60e51b8152600401808060200182810382526021815260200180611b266021913960400191505060405180910390fd5b84156116965743851161168e576040805162461bcd60e51b8152602060048201526014602482015273195b99081a195a59da1d081d1bdbc81cdb585b1b60621b604482015290519081900360640190fd5b600281018590555b438160010154116116d85760405162461bcd60e51b8152600401808060200182810382526029815260200180611b476029913960400191505060405180910390fd5b8515611733574386101561172b576040805162461bcd60e51b81526020600482015260156024820152741cdd185c9d08189b1bd8dac81d1bdbc81cdb585b1b605a1b604482015290519081900360640190fd5b600181018690555b80600101548160020154116117795760405162461bcd60e51b815260040180806020018281038252602e815260200180611b70602e913960400191505060405180910390fd5b835161178e9060048301906020870190611a8a565b507f75bd377eb1b207b278c30674ab97f335939ec329530be2c65703260dc0c3b758878787876040518085815260200184815260200183815260200180602001828103825283818151815260200191508051906020019080838360005b838110156118035781810151838201526020016117eb565b50505050905090810190601f1680156118305780820380516001836020036101000a031916815260200191505b509550505050505060405180910390a15060019695505050505050565b6001600160a01b038216611897576040516001600160a01b03821690303180156108fc02916000818181858888f19350505050158015611891573d6000803e3d6000fd5b50611a86565b604080516370a0823160e01b8152306004820152905183916000916001600160a01b038416916370a0823191602480830192602092919082900301818787803b1580156118e357600080fd5b505af11580156118f7573d6000803e3d6000fd5b505050506040513d602081101561190d57600080fd5b5051604080516001600160a01b038681166024830152604480830185905283518084039091018152606490920183526020820180516001600160e01b031663a9059cbb60e01b178152925182519495506000949189169390918291908083835b6020831061198c5780518252601f19909201916020918201910161196d565b6001836020036101000a0380198251168184511680821785525050505050509050019150506000604051808303816000865af19150503d80600081146119ee576040519150601f19603f3d011682016040523d82523d6000602084013e6119f3565b606091505b5050905080611a37576040805162461bcd60e51b815260206004820152600b60248201526a18d85b1b0819985a5b195960aa1b604482015290519081900360640190fd5b836001600160a01b0316856001600160a01b03167ff931edb47c50b4b4104c187b5814a9aef5f709e17e2ecf9617e860cacade929c846040518082815260200191505060405180910390a35050505b5050565b828054600181600116156101000203166002900490600052602060002090601f016020900481019282601f10611acb57805160ff1916838001178555611af8565b82800160010185558215611af8579182015b82811115611af8578251825591602001919060010190611add565b50611b04929150611b08565b5090565b611b2291905b80821115611b045760008155600101611b0e565b9056fe6f6e6c792063726561746f722063616e206368616e676520766f746520696e666f616c72656164792073746172742c2063616e6e6f74206368616e676520737461727420686569676874656e64206865696768742073686f756c642062652067726561746572207468616e207374617274206865696768746f6e6c792061207369676e65722063616e2063616c6c20696e204d756c7469536967546f6f6c73a265627a7a72305820c51a4742a745f28c1cc8835e14ee2fb1043fdd94fda6f7fd3fd01fecfd2c4dda64736f6c634300050a0032a265627a7a72305820857df3a726055b916e1c1649f0d821104aa309c3008a7bf29c6a70b0da4fcd1b64736f6c634300050a0032",
  "source": "pragma solidity >=0.4.21 <0.6.0;\n\nimport \"../MultiSigTools.sol\";\nimport \"../utils/TokenClaimer.sol\";\nimport \"../utils/SafeMath.sol\";\n\ncontract SimpleMultiSigVote is MultiSigTools, TokenClaimer{\n\n  struct InternalData{\n    bool exist;\n    bool determined;\n    uint start_height;\n    uint end_height;\n    address owner;\n    string announcement;\n    string value;\n  }\n\n  mapping (bytes32 => InternalData) public vote_status;\n  uint public determined_vote_number;\n  uint public created_vote_number;\n\n  constructor(address _multisig) MultiSigTools(_multisig) public{\n    determined_vote_number = 0;\n    created_vote_number = 0;\n  }\n\n  event VoteCreate(bytes32 _hash, uint _start_height, uint _end_height);\n  event VoteChange(bytes32 _hash, uint _start_height, uint _end_height, string announcement);\n  event VotePass(bytes32 _hash, string _value);\n\n  modifier vote_exist(bytes32 _hash){\n    require(vote_status[_hash].exist, \"vote not exist\");\n    _;\n  }\n\n  function createVote(bytes32 _hash, uint _start_height, uint _end_height)\n    public\n    returns (bool){\n    require(!vote_status[_hash].exist, \"already exist\");\n    require(_end_height > block.number, \"end height too small\");\n    require(_end_height > _start_height, \"end height should be greater than start height\");\n    if(_start_height == 0){\n      _start_height = block.number;\n    }\n    InternalData storage d = vote_status[_hash];\n\n    d.exist = true;\n    d.determined = false;\n    d.start_height = _start_height;\n    d.end_height = _end_height;\n    d.owner = msg.sender;\n    created_vote_number += 1;\n    emit VoteCreate(_hash, _start_height, _end_height);\n    return true;\n  }\n\n  function changeVoteInfo(bytes32 _hash, uint _start_height, uint _end_height, string memory announcement) public\n    vote_exist(_hash)\n    returns (bool){\n    InternalData storage d = vote_status[_hash];\n    require(d.owner == msg.sender, \"only creator can change vote info\");\n\n    if(_end_height != 0){\n      require(_end_height > block.number, \"end height too small\");\n      d.end_height = _end_height;\n    }\n    require(d.start_height > block.number, \"already start, cannot change start height\");\n    if(_start_height != 0){\n      require(_start_height >= block.number, \"start block too small\");\n      d.start_height = _start_height;\n    }\n\n    require(d.end_height > d.start_height, \"end height should be greater than start height\");\n\n    d.announcement = announcement;\n    emit VoteChange(_hash, _start_height, _end_height, announcement);\n    return true;\n  }\n\n  function vote(uint64 id, bytes32 _hash, string memory _value) public\n    vote_exist(_hash)\n    only_signer\n    is_majority_sig(id, \"vote\")\n    returns (bool){\n    InternalData storage d = vote_status[_hash];\n    require(d.start_height <= block.number, \"vote not start yet\");\n    require(d.end_height >= block.number, \"vote already end\");\n\n    d.value = _value;\n    d.determined = true;\n    emit VotePass(_hash, _value);\n    determined_vote_number += 1;\n    return true;\n  }\n\n  function isVoteDetermined(bytes32 _hash) public view returns (bool){\n    return vote_status[_hash].determined;\n  }\n\n  function checkVoteValue(bytes32 _hash) public view returns(string memory value){\n    require(vote_status[_hash].exist, \"not exist\");\n    require(vote_status[_hash].determined, \"not determined\");\n\n    value = vote_status[_hash].value;\n  }\n\n  function voteInfo(bytes32 _hash) public\n  vote_exist(_hash)\n  view returns(bool determined, uint start_height, uint end_height, address owner, string memory announcement, string memory value){\n\n    InternalData storage d = vote_status[_hash];\n    return (d.determined, d.start_height, d.end_height, d.owner, d.announcement, d.value);\n  }\n\n  function claimStdTokens(uint64 id, address _token, address payable to) public only_signer is_majority_sig(id, \"claimStdTokens\"){\n    _claimStdTokens(_token, to);\n  }\n}\n\ncontract SimpleMultiSigVoteFactory {\n  event NewSimpleMultiSigVote(address addr);\n\n  function createSimpleMultiSigVote(address _multisig) public returns(address){\n    SimpleMultiSigVote smsv = new SimpleMultiSigVote(_multisig);\n\n    emit NewSimpleMultiSigVote(address(smsv));\n    return address(smsv);\n  }\n}\n",
  "sourcePath": "/Users/xuepeng/projects/gttoken-contract/contracts/cooperation/SimpleMultiSigVote.sol",
  "compiler": {
    "name": "solc",
    "version": "0.5.10+commit.5a6ea5b1.Emscripten.clang"
  },
  "schemaVersion": "3.0.11",
  "updatedAt": "2020-04-27T14:47:29.655Z",
  "devdoc": {
    "methods": {}
  },
  "userdoc": {
    "methods": {}
  }
}