{
  "contractName": "SimpleMultiSigVote",
  "abi": [
    {
      "constant": false,
      "inputs": [
        {
          "name": "id",
          "type": "uint64"
        },
        {
          "name": "_contract",
          "type": "address"
        }
      ],
      "name": "transfer_multisig",
      "outputs": [],
      "payable": false,
      "stateMutability": "nonpayable",
      "type": "function"
    },
    {
      "constant": true,
      "inputs": [
        {
          "name": "",
          "type": "bytes32"
        }
      ],
      "name": "vote_status",
      "outputs": [
        {
          "name": "exist",
          "type": "bool"
        },
        {
          "name": "determined",
          "type": "bool"
        },
        {
          "name": "start_height",
          "type": "uint256"
        },
        {
          "name": "end_height",
          "type": "uint256"
        },
        {
          "name": "owner",
          "type": "address"
        },
        {
          "name": "announcement",
          "type": "string"
        },
        {
          "name": "value",
          "type": "string"
        },
        {
          "name": "vote_id",
          "type": "uint64"
        }
      ],
      "payable": false,
      "stateMutability": "view",
      "type": "function"
    },
    {
      "constant": true,
      "inputs": [],
      "name": "determined_vote_number",
      "outputs": [
        {
          "name": "",
          "type": "uint256"
        }
      ],
      "payable": false,
      "stateMutability": "view",
      "type": "function"
    },
    {
      "constant": true,
      "inputs": [],
      "name": "created_vote_number",
      "outputs": [
        {
          "name": "",
          "type": "uint256"
        }
      ],
      "payable": false,
      "stateMutability": "view",
      "type": "function"
    },
    {
      "constant": true,
      "inputs": [],
      "name": "multisig_contract",
      "outputs": [
        {
          "name": "",
          "type": "address"
        }
      ],
      "payable": false,
      "stateMutability": "view",
      "type": "function"
    },
    {
      "inputs": [
        {
          "name": "_multisig",
          "type": "address"
        }
      ],
      "payable": false,
      "stateMutability": "nonpayable",
      "type": "constructor"
    },
    {
      "anonymous": false,
      "inputs": [
        {
          "indexed": false,
          "name": "_hash",
          "type": "bytes32"
        },
        {
          "indexed": false,
          "name": "_start_height",
          "type": "uint256"
        },
        {
          "indexed": false,
          "name": "_end_height",
          "type": "uint256"
        }
      ],
      "name": "VoteCreate",
      "type": "event"
    },
    {
      "anonymous": false,
      "inputs": [
        {
          "indexed": false,
          "name": "_hash",
          "type": "bytes32"
        },
        {
          "indexed": false,
          "name": "_start_height",
          "type": "uint256"
        },
        {
          "indexed": false,
          "name": "_end_height",
          "type": "uint256"
        },
        {
          "indexed": false,
          "name": "announcement",
          "type": "string"
        }
      ],
      "name": "VoteChange",
      "type": "event"
    },
    {
      "anonymous": false,
      "inputs": [
        {
          "indexed": false,
          "name": "_hash",
          "type": "bytes32"
        },
        {
          "indexed": false,
          "name": "_value",
          "type": "string"
        }
      ],
      "name": "VotePass",
      "type": "event"
    },
    {
      "anonymous": false,
      "inputs": [
        {
          "indexed": true,
          "name": "_token",
          "type": "address"
        },
        {
          "indexed": true,
          "name": "_to",
          "type": "address"
        },
        {
          "indexed": false,
          "name": "_amount",
          "type": "uint256"
        }
      ],
      "name": "ClaimedTokens",
      "type": "event"
    },
    {
      "anonymous": false,
      "inputs": [
        {
          "indexed": false,
          "name": "_old",
          "type": "address"
        },
        {
          "indexed": false,
          "name": "_new",
          "type": "address"
        }
      ],
      "name": "TransferMultiSig",
      "type": "event"
    },
    {
      "constant": false,
      "inputs": [
        {
          "name": "_hash",
          "type": "bytes32"
        },
        {
          "name": "_start_height",
          "type": "uint256"
        },
        {
          "name": "_end_height",
          "type": "uint256"
        }
      ],
      "name": "createVote",
      "outputs": [
        {
          "name": "",
          "type": "bool"
        }
      ],
      "payable": false,
      "stateMutability": "nonpayable",
      "type": "function"
    },
    {
      "constant": false,
      "inputs": [
        {
          "name": "_hash",
          "type": "bytes32"
        },
        {
          "name": "_start_height",
          "type": "uint256"
        },
        {
          "name": "_end_height",
          "type": "uint256"
        },
        {
          "name": "announcement",
          "type": "string"
        }
      ],
      "name": "changeVoteInfo",
      "outputs": [
        {
          "name": "",
          "type": "bool"
        }
      ],
      "payable": false,
      "stateMutability": "nonpayable",
      "type": "function"
    },
    {
      "constant": false,
      "inputs": [
        {
          "name": "id",
          "type": "uint64"
        },
        {
          "name": "_hash",
          "type": "bytes32"
        },
        {
          "name": "_value",
          "type": "string"
        }
      ],
      "name": "vote",
      "outputs": [
        {
          "name": "",
          "type": "bool"
        }
      ],
      "payable": false,
      "stateMutability": "nonpayable",
      "type": "function"
    },
    {
      "constant": true,
      "inputs": [
        {
          "name": "_hash",
          "type": "bytes32"
        }
      ],
      "name": "isVoteDetermined",
      "outputs": [
        {
          "name": "",
          "type": "bool"
        }
      ],
      "payable": false,
      "stateMutability": "view",
      "type": "function"
    },
    {
      "constant": true,
      "inputs": [
        {
          "name": "_hash",
          "type": "bytes32"
        }
      ],
      "name": "checkVoteValue",
      "outputs": [
        {
          "name": "value",
          "type": "string"
        }
      ],
      "payable": false,
      "stateMutability": "view",
      "type": "function"
    },
    {
      "constant": true,
      "inputs": [
        {
          "name": "_hash",
          "type": "bytes32"
        }
      ],
      "name": "voteInfo",
      "outputs": [
        {
          "name": "determined",
          "type": "bool"
        },
        {
          "name": "start_height",
          "type": "uint256"
        },
        {
          "name": "end_height",
          "type": "uint256"
        },
        {
          "name": "owner",
          "type": "address"
        },
        {
          "name": "announcement",
          "type": "string"
        },
        {
          "name": "value",
          "type": "string"
        }
      ],
      "payable": false,
      "stateMutability": "view",
      "type": "function"
    },
    {
      "constant": false,
      "inputs": [
        {
          "name": "id",
          "type": "uint64"
        },
        {
          "name": "_token",
          "type": "address"
        },
        {
          "name": "to",
          "type": "address"
        }
      ],
      "name": "claimStdTokens",
      "outputs": [],
      "payable": false,
      "stateMutability": "nonpayable",
      "type": "function"
    }
  ],
  "bytecode": "0x608060405234801561001057600080fd5b50604051611e35380380611e358339818101604052602081101561003357600080fd5b5051806001600160a01b03811661004957600080fd5b600080546001600160a01b039092166001600160a01b0319909216919091178155600281905560035550611db3806100826000396000f3fe608060405234801561001057600080fd5b50600436106100b45760003560e01c8063515579481161007157806351557948146103845780636ce5edff1461038c5780638e924896146103b0578063d1de6816146103d9578063d459d03e14610506578063d8fc8cfc14610598576100b4565b80630c3129fe146100b957806310cb818c146100f8578063296364c01461012d578063368e28dd1461015e5780634b07a7b6146102af5780634cd44461146102c9575b600080fd5b6100f6600480360360608110156100cf57600080fd5b506001600160401b03813516906001600160a01b0360208201358116916040013516610651565b005b6100f66004803603604081101561010e57600080fd5b5080356001600160401b031690602001356001600160a01b03166108a0565b61014a6004803603602081101561014357600080fd5b5035610b5b565b604080519115158252519081900360200190f35b61017b6004803603602081101561017457600080fd5b5035610b75565b604051808915151515815260200188151515158152602001878152602001868152602001856001600160a01b03166001600160a01b031681526020018060200180602001846001600160401b03166001600160401b03168152602001838103835286818151815260200191508051906020019080838360005b8381101561020c5781810151838201526020016101f4565b50505050905090810190601f1680156102395780820380516001836020036101000a031916815260200191505b50838103825285518152855160209182019187019080838360005b8381101561026c578181015183820152602001610254565b50505050905090810190601f1680156102995780820380516001836020036101000a031916815260200191505b509a505050505050505050505060405180910390f35b6102b7610ce3565b60408051918252519081900360200190f35b61014a600480360360608110156102df57600080fd5b6001600160401b038235169160208101359181019060608101604082013564010000000081111561030f57600080fd5b82018360208201111561032157600080fd5b8035906020019184600183028401116401000000008311171561034357600080fd5b91908080601f016020809104026020016040519081016040528093929190818152602001838380828437600092019190915250929550610ce9945050505050565b6102b7610dee565b610394610df4565b604080516001600160a01b039092168252519081900360200190f35b61014a600480360360608110156103c657600080fd5b5080359060208101359060400135610e03565b6103f6600480360360208110156103ef57600080fd5b5035610f94565b6040518087151515158152602001868152602001858152602001846001600160a01b03166001600160a01b031681526020018060200180602001838103835285818151815260200191508051906020019080838360005b8381101561046557818101518382015260200161044d565b50505050905090810190601f1680156104925780820380516001836020036101000a031916815260200191505b50838103825284518152845160209182019186019080838360005b838110156104c55781810151838201526020016104ad565b50505050905090810190601f1680156104f25780820380516001836020036101000a031916815260200191505b509850505050505050505060405180910390f35b6105236004803603602081101561051c57600080fd5b5035611168565b6040805160208082528351818301528351919283929083019185019080838360005b8381101561055d578181015183820152602001610545565b50505050905090810190601f16801561058a5780820380516001836020036101000a031916815260200191505b509250505060405180910390f35b61014a600480360360808110156105ae57600080fd5b813591602081013591604082013591908101906080810160608201356401000000008111156105dc57600080fd5b8201836020820111156105ee57600080fd5b8035906020019184600183028401116401000000008311171561061057600080fd5b91908080601f0160208091040260200160405190810160405280939291908181526020018383808284376000920191909152509295506112b4945050505050565b60005460408051629764fd60e61b815233600482015290516001600160a01b03909216916325d93f4091602480820192602092909190829003018186803b15801561069b57600080fd5b505afa1580156106af573d6000803e3d6000fd5b505050506040513d60208110156106c557600080fd5b50516107025760405162461bcd60e51b8152600401808060200182810382526027815260200180611d586027913960400191505060405180910390fd5b826040518060400160405280600e81526020016d636c61696d537464546f6b656e7360901b815250600080356001600160e01b03191660003660405160200180846001600160e01b0319166001600160e01b03191681526004018383808284376040805191909301818103601f190182529283905280516020918201206000805463d253eced60e01b86526001600160401b038d16600487019081526044870184905233606488018190526080602489019081528e5160848a01528e51959d506001600160a01b039093169b5063d253eced9a508e99508d98508c979096509094919360a490910192918801918190849084905b8381101561080e5781810151838201526020016107f6565b50505050905090810190601f16801561083b5780820380516001836020036101000a031916815260200191505b5095505050505050602060405180830381600087803b15801561085d57600080fd5b505af1158015610871573d6000803e3d6000fd5b505050506040513d602081101561088757600080fd5b505115610898576108988585611573565b505050505050565b60005460408051629764fd60e61b815233600482015290516001600160a01b03909216916325d93f4091602480820192602092909190829003018186803b1580156108ea57600080fd5b505afa1580156108fe573d6000803e3d6000fd5b505050506040513d602081101561091457600080fd5b50516109515760405162461bcd60e51b8152600401808060200182810382526027815260200180611d586027913960400191505060405180910390fd5b81604051806040016040528060118152602001707472616e736665725f6d756c746973696760781b815250600080356001600160e01b03191660003660405160200180846001600160e01b0319166001600160e01b03191681526004018383808284376040805191909301818103601f190182529283905280516020918201206000805463d253eced60e01b86526001600160401b038d16600487019081526044870184905233606488018190526080602489019081528e5160848a01528e51959d506001600160a01b039093169b5063d253eced9a508e99508d98508c979096509094919360a490910192918801918190849084905b83811015610a60578181015183820152602001610a48565b50505050905090810190601f168015610a8d5780820380516001836020036101000a031916815260200191505b5095505050505050602060405180830381600087803b158015610aaf57600080fd5b505af1158015610ac3573d6000803e3d6000fd5b505050506040513d6020811015610ad957600080fd5b505115610b54576001600160a01b038416610af357600080fd5b600080546001600160a01b038681166001600160a01b0319831681179093556040805191909216808252602082019390935281517fd30bbf8c51d656e1f0bad4c64bc25c133cb2e626cf2791746b0f083b38ea3fdd929181900390910190a1505b5050505050565b600090815260016020526040902054610100900460ff1690565b60016020818152600092835260409283902080548184015460028084015460038501546004860180548a516101009a8216158b026000190190911694909404601f8101899004890285018901909a5289845260ff8087169a9990960490951697939691956001600160a01b039091169490939091830182828015610c3a5780601f10610c0f57610100808354040283529160200191610c3a565b820191906000526020600020905b815481529060010190602001808311610c1d57829003601f168201915b5050505060058301805460408051602060026001851615610100026000190190941693909304601f8101849004840282018401909252818152949594935090830182828015610cca5780601f10610c9f57610100808354040283529160200191610cca565b820191906000526020600020905b815481529060010190602001808311610cad57829003601f168201915b505050600690930154919250506001600160401b031688565b60025481565b6000828152600160208190526040822090810154431015610d46576040805162461bcd60e51b81526020600482015260126024820152711d9bdd19481b9bdd081cdd185c9d081e595d60721b604482015290519081900360640190fd5b4381600201541015610d92576040805162461bcd60e51b815260206004820152601060248201526f1d9bdd1948185b1c9958591e48195b9960821b604482015290519081900360640190fd5b600681015485906001600160401b0316610dc95760068201805467ffffffffffffffff19166001600160401b038816179055610dd9565b5060068101546001600160401b03165b610de48186866117b0565b9695505050505050565b60035481565b6000546001600160a01b031681565b60008381526001602052604081205460ff1615610e57576040805162461bcd60e51b815260206004820152600d60248201526c185b1c9958591e48195e1a5cdd609a1b604482015290519081900360640190fd5b438211610ea2576040805162461bcd60e51b8152602060048201526014602482015273195b99081a195a59da1d081d1bdbc81cdb585b1b60621b604482015290519081900360640190fd5b828211610ee05760405162461bcd60e51b815260040180806020018281038252602e815260200180611d2a602e913960400191505060405180910390fd5b82610ee9574392505b600084815260016020818152604092839020805461ff001960ff19909116841716815580830187905560028101869055600380820180546001600160a01b0319163317905560068201805467ffffffffffffffff1916905580549093019092558251878152908101869052808301859052915190917f4df25fe128c40cfabb61a9a1757efbeebcb01ba950a185379c32c05eaa8fd283919081900360600190a1506001949350505050565b6000818152600160205260408120548190819081906060908190879060ff16610ff5576040805162461bcd60e51b815260206004820152600e60248201526d1d9bdd19481b9bdd08195e1a5cdd60921b604482015290519081900360640190fd5b60008881526001602081815260409283902080548184015460028084015460038501546004860180548a516101009a8216158b026000190190911694909404601f8101899004890285018901909a5289845295989790940460ff1696929590946001600160a01b0390941693926005890192918491908301828280156110bc5780601f10611091576101008083540402835291602001916110bc565b820191906000526020600020905b81548152906001019060200180831161109f57829003601f168201915b5050845460408051602060026001851615610100026000190190941693909304601f81018490048402820184019092528181529597508694509250840190508282801561114a5780601f1061111f5761010080835404028352916020019161114a565b820191906000526020600020905b81548152906001019060200180831161112d57829003601f168201915b50505050509050975097509750975097509750505091939550919395565b60008181526001602052604090205460609060ff166111ba576040805162461bcd60e51b81526020600482015260096024820152681b9bdd08195e1a5cdd60ba1b604482015290519081900360640190fd5b600082815260016020526040902054610100900460ff16611213576040805162461bcd60e51b815260206004820152600e60248201526d1b9bdd0819195d195c9b5a5b995960921b604482015290519081900360640190fd5b60008281526001602081815260409283902060050180548451600294821615610100026000190190911693909304601f81018390048302840183019094528383529192908301828280156112a85780601f1061127d576101008083540402835291602001916112a8565b820191906000526020600020905b81548152906001019060200180831161128b57829003601f168201915b50505050509050919050565b600084815260016020526040812054859060ff1661130a576040805162461bcd60e51b815260206004820152600e60248201526d1d9bdd19481b9bdd08195e1a5cdd60921b604482015290519081900360640190fd5b600086815260016020526040902060038101546001600160a01b031633146113635760405162461bcd60e51b8152600401808060200182810382526021815260200180611ce06021913960400191505060405180910390fd5b84156113bc574385116113b4576040805162461bcd60e51b8152602060048201526014602482015273195b99081a195a59da1d081d1bdbc81cdb585b1b60621b604482015290519081900360640190fd5b600281018590555b438160010154116113fe5760405162461bcd60e51b8152600401808060200182810382526029815260200180611d016029913960400191505060405180910390fd5b85156114595743861015611451576040805162461bcd60e51b81526020600482015260156024820152741cdd185c9d08189b1bd8dac81d1bdbc81cdb585b1b605a1b604482015290519081900360640190fd5b600181018690555b806001015481600201541161149f5760405162461bcd60e51b815260040180806020018281038252602e815260200180611d2a602e913960400191505060405180910390fd5b83516114b49060048301906020870190611c44565b507f75bd377eb1b207b278c30674ab97f335939ec329530be2c65703260dc0c3b758878787876040518085815260200184815260200183815260200180602001828103825283818151815260200191508051906020019080838360005b83811015611529578181015183820152602001611511565b50505050905090810190601f1680156115565780820380516001836020036101000a031916815260200191505b509550505050505060405180910390a15060019695505050505050565b6001600160a01b0382166115bd576040516001600160a01b03821690303180156108fc02916000818181858888f193505050501580156115b7573d6000803e3d6000fd5b506117ac565b604080516370a0823160e01b8152306004820152905183916000916001600160a01b038416916370a0823191602480830192602092919082900301818787803b15801561160957600080fd5b505af115801561161d573d6000803e3d6000fd5b505050506040513d602081101561163357600080fd5b5051604080516001600160a01b038681166024830152604480830185905283518084039091018152606490920183526020820180516001600160e01b031663a9059cbb60e01b178152925182519495506000949189169390918291908083835b602083106116b25780518252601f199092019160209182019101611693565b6001836020036101000a0380198251168184511680821785525050505050509050019150506000604051808303816000865af19150503d8060008114611714576040519150601f19603f3d011682016040523d82523d6000602084013e611719565b606091505b505090508061175d576040805162461bcd60e51b815260206004820152600b60248201526a18d85b1b0819985a5b195960aa1b604482015290519081900360640190fd5b836001600160a01b0316856001600160a01b03167ff931edb47c50b4b4104c187b5814a9aef5f709e17e2ecf9617e860cacade929c846040518082815260200191505060405180910390a35050505b5050565b600082815260016020526040812054839060ff16611806576040805162461bcd60e51b815260206004820152600e60248201526d1d9bdd19481b9bdd08195e1a5cdd60921b604482015290519081900360640190fd5b60005460408051629764fd60e61b815233600482015290516001600160a01b03909216916325d93f4091602480820192602092909190829003018186803b15801561185057600080fd5b505afa158015611864573d6000803e3d6000fd5b505050506040513d602081101561187a57600080fd5b50516118b75760405162461bcd60e51b8152600401808060200182810382526027815260200180611d586027913960400191505060405180910390fd5b8460405180604001604052806004815260200163766f746560e01b8152506000356001600160e01b03191687878760405160200180856001600160e01b0319166001600160e01b0319168152600401846001600160401b03166001600160401b031660c01b815260080183815260200182805190602001908083835b602083106119525780518252601f199092019160209182019101611933565b6001836020036101000a038019825116818451168082178552505050505050905001945050505050604051602081830303815290604052805190602001206000809054906101000a90046001600160a01b03166001600160a01b031663d253eced848484336040518563ffffffff1660e01b815260040180856001600160401b03166001600160401b0316815260200180602001848152602001836001600160a01b03166001600160a01b03168152602001828103825285818151815260200191508051906020019080838360005b83811015611a39578181015183820152602001611a21565b50505050905090810190601f168015611a665780820380516001836020036101000a031916815260200191505b5095505050505050602060405180830381600087803b158015611a8857600080fd5b505af1158015611a9c573d6000803e3d6000fd5b505050506040513d6020811015611ab257600080fd5b505115611c3957600087815260016020819052604090912090810154431015611b17576040805162461bcd60e51b81526020600482015260126024820152711d9bdd19481b9bdd081cdd185c9d081e595d60721b604482015290519081900360640190fd5b4381600201541015611b63576040805162461bcd60e51b815260206004820152601060248201526f1d9bdd1948185b1c9958591e48195b9960821b604482015290519081900360640190fd5b8651611b7890600583019060208a0190611c44565b50805461ff0019166101001781556040805189815260208082018381528a519383019390935289517f2bd50945b22a74ab1ec65bbece818e35f750adc384baa4df419dcb3a3048cc42938c938c939092606084019185019080838360005b83811015611bee578181015183820152602001611bd6565b50505050905090810190601f168015611c1b5780820380516001836020036101000a031916815260200191505b50935050505060405180910390a15060028054600190810190915594505b505050509392505050565b828054600181600116156101000203166002900490600052602060002090601f016020900481019282601f10611c8557805160ff1916838001178555611cb2565b82800160010185558215611cb2579182015b82811115611cb2578251825591602001919060010190611c97565b50611cbe929150611cc2565b5090565b611cdc91905b80821115611cbe5760008155600101611cc8565b9056fe6f6e6c792063726561746f722063616e206368616e676520766f746520696e666f616c72656164792073746172742c2063616e6e6f74206368616e676520737461727420686569676874656e64206865696768742073686f756c642062652067726561746572207468616e207374617274206865696768746f6e6c792061207369676e65722063616e2063616c6c20696e204d756c7469536967546f6f6c73a265627a7a72305820c628fb51c34473a11157fd9a718a0602febc1155b7b78578b539eda55a5e12e264736f6c634300050a0032",
  "source": "pragma solidity >=0.4.21 <0.6.0;\n\nimport \"../MultiSigTools.sol\";\nimport \"../utils/TokenClaimer.sol\";\nimport \"../utils/SafeMath.sol\";\n\ncontract SimpleMultiSigVote is MultiSigTools, TokenClaimer{\n\n  struct InternalData{\n    bool exist;\n    bool determined;\n    uint start_height;\n    uint end_height;\n    address owner;\n    string announcement;\n    string value;\n    uint64 vote_id;\n  }\n\n  mapping (bytes32 => InternalData) public vote_status;\n  uint public determined_vote_number;\n  uint public created_vote_number;\n\n  constructor(address _multisig) MultiSigTools(_multisig) public{\n    determined_vote_number = 0;\n    created_vote_number = 0;\n  }\n\n  event VoteCreate(bytes32 _hash, uint _start_height, uint _end_height);\n  event VoteChange(bytes32 _hash, uint _start_height, uint _end_height, string announcement);\n  event VotePass(bytes32 _hash, string _value);\n\n  modifier vote_exist(bytes32 _hash){\n    require(vote_status[_hash].exist, \"vote not exist\");\n    _;\n  }\n\n  function createVote(bytes32 _hash, uint _start_height, uint _end_height)\n    public\n    returns (bool){\n    require(!vote_status[_hash].exist, \"already exist\");\n    require(_end_height > block.number, \"end height too small\");\n    require(_end_height > _start_height, \"end height should be greater than start height\");\n    if(_start_height == 0){\n      _start_height = block.number;\n    }\n    InternalData storage d = vote_status[_hash];\n\n    d.exist = true;\n    d.determined = false;\n    d.start_height = _start_height;\n    d.end_height = _end_height;\n    d.owner = msg.sender;\n    d.vote_id = 0;\n    created_vote_number += 1;\n    emit VoteCreate(_hash, _start_height, _end_height);\n    return true;\n  }\n\n  function changeVoteInfo(bytes32 _hash, uint _start_height, uint _end_height, string memory announcement) public\n    vote_exist(_hash)\n    returns (bool){\n    InternalData storage d = vote_status[_hash];\n    require(d.owner == msg.sender, \"only creator can change vote info\");\n\n    if(_end_height != 0){\n      require(_end_height > block.number, \"end height too small\");\n      d.end_height = _end_height;\n    }\n    require(d.start_height > block.number, \"already start, cannot change start height\");\n    if(_start_height != 0){\n      require(_start_height >= block.number, \"start block too small\");\n      d.start_height = _start_height;\n    }\n\n    require(d.end_height > d.start_height, \"end height should be greater than start height\");\n\n    d.announcement = announcement;\n    emit VoteChange(_hash, _start_height, _end_height, announcement);\n    return true;\n  }\n  function vote_internal(uint64 id, bytes32 _hash, string memory _value) private\n    vote_exist(_hash)\n    only_signer\n    is_majority_sig_with_hash(id, \"vote\", keccak256(abi.encodePacked(msg.sig, id, _hash, _value)) )\n    returns (bool){\n    InternalData storage d = vote_status[_hash];\n    require(d.start_height <= block.number, \"vote not start yet\");\n    require(d.end_height >= block.number, \"vote already end\");\n\n    d.value = _value;\n    d.determined = true;\n    emit VotePass(_hash, _value);\n    determined_vote_number += 1;\n    return true;\n  }\n\n  function vote(uint64 id, bytes32 _hash, string memory _value) public\n    returns (bool){\n    InternalData storage d = vote_status[_hash];\n    require(d.start_height <= block.number, \"vote not start yet\");\n    require(d.end_height >= block.number, \"vote already end\");\n\n    uint64 tid = id;\n    if(d.vote_id == 0){\n      d.vote_id = id;\n    }else{\n      tid = d.vote_id;\n    }\n    return vote_internal(tid, _hash, _value);\n  }\n\n  function isVoteDetermined(bytes32 _hash) public view returns (bool){\n    return vote_status[_hash].determined;\n  }\n\n  function checkVoteValue(bytes32 _hash) public view returns(string memory value){\n    require(vote_status[_hash].exist, \"not exist\");\n    require(vote_status[_hash].determined, \"not determined\");\n\n    value = vote_status[_hash].value;\n  }\n\n  function voteInfo(bytes32 _hash) public\n  vote_exist(_hash)\n  view returns(bool determined, uint start_height, uint end_height, address owner, string memory announcement, string memory value){\n\n    InternalData storage d = vote_status[_hash];\n    return (d.determined, d.start_height, d.end_height, d.owner, d.announcement, d.value);\n  }\n\n  function claimStdTokens(uint64 id, address _token, address payable to) public only_signer is_majority_sig(id, \"claimStdTokens\"){\n    _claimStdTokens(_token, to);\n  }\n}\n\ncontract SimpleMultiSigVoteFactory {\n  event NewSimpleMultiSigVote(address addr);\n\n  function createSimpleMultiSigVote(address _multisig) public returns(address){\n    SimpleMultiSigVote smsv = new SimpleMultiSigVote(_multisig);\n\n    emit NewSimpleMultiSigVote(address(smsv));\n    return address(smsv);\n  }\n}\n",
  "sourcePath": "/Users/xuepeng/projects/gttoken-contract/contracts/cooperation/SimpleMultiSigVote.sol",
  "compiler": {
    "name": "solc",
    "version": "0.5.10+commit.5a6ea5b1.Emscripten.clang"
  },
  "schemaVersion": "3.2.0",
  "updatedAt": "2020-06-25T04:44:02.291Z",
  "networkType": "ethereum",
  "devdoc": {
    "methods": {}
  },
  "userdoc": {
    "methods": {}
  }
}