{
  "contractName": "TestAddressList",
  "abi": [
    {
      "constant": true,
      "inputs": [
        {
          "name": "addr",
          "type": "address"
        }
      ],
      "name": "is_address_exist",
      "outputs": [
        {
          "name": "",
          "type": "bool"
        }
      ],
      "payable": false,
      "stateMutability": "view",
      "type": "function"
    },
    {
      "constant": true,
      "inputs": [],
      "name": "get_all_addresses",
      "outputs": [
        {
          "name": "",
          "type": "address[]"
        }
      ],
      "payable": false,
      "stateMutability": "view",
      "type": "function"
    },
    {
      "constant": true,
      "inputs": [
        {
          "name": "i",
          "type": "uint256"
        }
      ],
      "name": "get_address",
      "outputs": [
        {
          "name": "",
          "type": "address"
        }
      ],
      "payable": false,
      "stateMutability": "view",
      "type": "function"
    },
    {
      "constant": true,
      "inputs": [],
      "name": "get_address_num",
      "outputs": [
        {
          "name": "",
          "type": "uint256"
        }
      ],
      "payable": false,
      "stateMutability": "view",
      "type": "function"
    },
    {
      "constant": true,
      "inputs": [
        {
          "name": "",
          "type": "uint256"
        }
      ],
      "name": "addresses",
      "outputs": [
        {
          "name": "",
          "type": "address"
        }
      ],
      "payable": false,
      "stateMutability": "view",
      "type": "function"
    },
    {
      "constant": false,
      "inputs": [
        {
          "name": "addr",
          "type": "address"
        }
      ],
      "name": "add_address",
      "outputs": [],
      "payable": false,
      "stateMutability": "nonpayable",
      "type": "function"
    },
    {
      "constant": false,
      "inputs": [
        {
          "name": "addr",
          "type": "address"
        }
      ],
      "name": "remove_address",
      "outputs": [],
      "payable": false,
      "stateMutability": "nonpayable",
      "type": "function"
    },
    {
      "constant": false,
      "inputs": [],
      "name": "reset",
      "outputs": [],
      "payable": false,
      "stateMutability": "nonpayable",
      "type": "function"
    }
  ],
  "bytecode": "0x608060405261057e806100136000396000f3fe608060405234801561001057600080fd5b50600436106100885760003560e01c8063493f4f741161005b578063493f4f741461016d578063aebf2085146101a6578063d826f88f146101c0578063edf26d9b146101c857610088565b806313bc26351461008d57806327e37f25146100c7578063395dbfae146100ef578063433c17d314610147575b600080fd5b6100b3600480360360208110156100a357600080fd5b50356001600160a01b03166101e5565b604080519115158252519081900360200190f35b6100ed600480360360208110156100dd57600080fd5b50356001600160a01b0316610203565b005b6100f761020f565b60408051602080825283518183015283519192839290830191858101910280838360005b8381101561013357818101518382015260200161011b565b505050509050019250505060405180910390f35b6100ed6004803603602081101561015d57600080fd5b50356001600160a01b0316610272565b61018a6004803603602081101561018357600080fd5b503561027b565b604080516001600160a01b039092168252519081900360200190f35b6101ae6102e6565b60408051918252519081900360200190f35b6100ed6102ec565b61018a600480360360208110156101de57600080fd5b50356102f6565b6001600160a01b031660009081526020819052604090205460ff1690565b61020c8161031d565b50565b6060600180548060200260200160405190810160405280929190818152602001828054801561026757602002820191906000526020600020905b81546001600160a01b03168152600190910190602001808311610249575b505050505090505b90565b61020c816103a6565b60015460009082106102be5760405162461bcd60e51b81526004018080602001828103825260258152602001806105256025913960400191505060405180910390fd5b600182815481106102cb57fe5b6000918252602090912001546001600160a01b031692915050565b60015490565b6102f4610471565b565b6001818154811061030357fe5b6000918252602090912001546001600160a01b0316905081565b6001600160a01b03811660009081526020819052604090205460ff16156103435761020c565b6001600160a01b03166000818152602081905260408120805460ff191660019081179091558054808201825591527fb10e2d527612073b26eecdfd717e6a320cf44b4afac2b0732d9fcbe2b7fa0cf60180546001600160a01b0319169091179055565b6001600160a01b03811660009081526020819052604090205460ff166103cb5761020c565b6001600160a01b03811660008181526020818152604091829020805460ff19169055815163edefe12d60e01b8152600160048201526024810193909352905173__AddressArray__________________________9263edefe12d926044808301939192829003018186803b15801561044257600080fd5b505af4158015610456573d6000803e3d6000fd5b505050506040513d602081101561046c57600080fd5b505050565b60005b6001548110156104cc5760008060006001848154811061049057fe5b6000918252602080832091909101546001600160a01b031683528201929092526040019020805460ff1916911515919091179055600101610474565b50600180546000808355919091526102f49061020c9061026f907fb10e2d527612073b26eecdfd717e6a320cf44b4afac2b0732d9fcbe2b7fa0cf6908101905b80821115610520576000815560010161050c565b509056fe416464726573734c6973743a6765745f616464726573732c206f7574206f662072616e6765a265627a7a723058203d6cf17017a166102ec913e81c5dddb3de90de390068b3620c2770c6520c6ff864736f6c634300050a0032",
  "source": "pragma solidity >=0.4.21 <0.6.0;\n\nimport \"../AddressList.sol\";\n\ncontract TestAddressList is AddressList{\n  function add_address(address addr) public{\n    _add_address(addr);\n  }\n\n  function remove_address(address addr) public{\n    _remove_address(addr);\n  }\n\n  function reset() public{\n  \t_reset();\n  }\n}\n",
  "sourcePath": "/Users/xuepeng/projects/gttoken-contract/contracts/test/TestAddressList.sol",
  "compiler": {
    "name": "solc",
    "version": "0.5.10+commit.5a6ea5b1.Emscripten.clang"
  },
  "schemaVersion": "3.0.11",
  "updatedAt": "2020-04-27T14:47:30.177Z",
  "devdoc": {
    "methods": {}
  },
  "userdoc": {
    "methods": {}
  }
}