{
  "contractName": "TrustListFactory",
  "abi": [
    {
      "anonymous": false,
      "inputs": [
        {
          "indexed": false,
          "name": "addr",
          "type": "address"
        },
        {
          "indexed": false,
          "name": "list",
          "type": "address[]"
        },
        {
          "indexed": false,
          "name": "multisig",
          "type": "address"
        }
      ],
      "name": "NewTrustList",
      "type": "event"
    },
    {
      "constant": false,
      "inputs": [
        {
          "name": "_list",
          "type": "address[]"
        },
        {
          "name": "_multisig",
          "type": "address"
        }
      ],
      "name": "createTrustList",
      "outputs": [
        {
          "name": "",
          "type": "address"
        }
      ],
      "payable": false,
      "stateMutability": "nonpayable",
      "type": "function"
    }
  ],
  "bytecode": "0x608060405234801561001057600080fd5b506118f5806100206000396000f3fe608060405234801561001057600080fd5b506004361061002b5760003560e01c806316256a7f14610030575b600080fd5b6100de6004803603604081101561004657600080fd5b81019060208101813564010000000081111561006157600080fd5b82018360208201111561007357600080fd5b8035906020019184602083028401116401000000008311171561009557600080fd5b919080806020026020016040519081016040528093929190818152602001838360200280828437600092019190915250929550505090356001600160a01b031691506100fa9050565b604080516001600160a01b039092168252519081900360200190f35b600080838360405161010b90610230565b6001600160a01b0382166020808301919091526040808352845190830152835182916060830191868201910280838360005b8381101561015557818101518382015260200161013d565b505050509050019350505050604051809103906000f08015801561017d573d6000803e3d6000fd5b5090507f7312b6417ce56b28481806a80bb0c17f5ef3ab138be3bbb7466c223e2685f16381858560405180846001600160a01b03166001600160a01b0316815260200180602001836001600160a01b03166001600160a01b03168152602001828103825284818151815260200191508051906020019060200280838360005b838110156102145781810151838201526020016101fc565b5050505090500194505050505060405180910390a19392505050565b6116838061023e8339019056fe60806040523480156200001157600080fd5b506040516200168338038062001683833981810160405260408110156200003757600080fd5b8101908080516401000000008111156200005057600080fd5b820160208101848111156200006457600080fd5b81518560208202830111640100000000821117156200008257600080fd5b50506020909101519092509050806001600160a01b038116620000a457600080fd5b600280546001600160a01b0319166001600160a01b039290921691909117905560005b8251811015620000ff57620000f6838281518110620000e257fe5b60200260200101516200010860201b60201c565b600101620000c7565b50505062000196565b6001600160a01b03811660009081526020819052604090205460ff1615620001305762000193565b6001600160a01b0381166000818152602081905260408120805460ff191660019081179091558054808201825591527fb10e2d527612073b26eecdfd717e6a320cf44b4afac2b0732d9fcbe2b7fa0cf60180546001600160a01b03191690911790555b50565b6114dd80620001a66000396000f3fe608060405234801561001057600080fd5b50600436106100ea5760003560e01c806395589d061161008c578063b910a01411610066578063b910a01414610313578063ced6a89e14610349578063d3780008146103fd578063edf26d9b14610433576100ea565b806395589d061461023d578063aebf2085146102f1578063b29baca81461030b576100ea565b806342a6a44a116100c857806342a6a44a146101b9578063493f4f74146101df578063632f751c146102185780636ce5edff14610235576100ea565b806310cb818c146100ef57806313bc263514610127578063395dbfae14610161575b600080fd5b6101256004803603604081101561010557600080fd5b50803567ffffffffffffffff1690602001356001600160a01b0316610450565b005b61014d6004803603602081101561013d57600080fd5b50356001600160a01b0316610709565b604080519115158252519081900360200190f35b610169610727565b60408051602080825283518183015283519192839290830191858101910280838360005b838110156101a557818101518382015260200161018d565b505050509050019250505060405180910390f35b61014d600480360360208110156101cf57600080fd5b50356001600160a01b0316610789565b6101fc600480360360208110156101f557600080fd5b503561079a565b604080516001600160a01b039092168252519081900360200190f35b6101fc6004803603602081101561022e57600080fd5b5035610805565b6101fc610810565b6101256004803603604081101561025357600080fd5b67ffffffffffffffff823516919081019060408101602082013564010000000081111561027f57600080fd5b82018360208201111561029157600080fd5b803590602001918460208302840111640100000000831117156102b357600080fd5b91908080602002602001604051908101604052809392919081815260200183836020028082843760009201919091525092955061081f945050505050565b6102f9610af1565b60408051918252519081900360200190f35b6102f9610af7565b6101256004803603604081101561032957600080fd5b50803567ffffffffffffffff1690602001356001600160a01b0316610b06565b6101256004803603604081101561035f57600080fd5b67ffffffffffffffff823516919081019060408101602082013564010000000081111561038b57600080fd5b82018360208201111561039d57600080fd5b803590602001918460208302840111640100000000831117156103bf57600080fd5b919080806020026020016040519081016040528093929190818152602001838360200280828437600092019190915250929550610d8d945050505050565b6101256004803603604081101561041357600080fd5b50803567ffffffffffffffff1690602001356001600160a01b031661105a565b6101fc6004803603602081101561044957600080fd5b50356112de565b60025460408051629764fd60e61b815233600482015290516001600160a01b03909216916325d93f4091602480820192602092909190829003018186803b15801561049a57600080fd5b505afa1580156104ae573d6000803e3d6000fd5b505050506040513d60208110156104c457600080fd5b50516105015760405162461bcd60e51b81526004018080602001828103825260278152602001806114826027913960400191505060405180910390fd5b81604051806040016040528060118152602001707472616e736665725f6d756c746973696760781b815250600080356001600160e01b03191660003660405160200180846001600160e01b0319166001600160e01b03191681526004018383808284376040805191909301818103601f1901825292839052805160209182012060025463d253eced60e01b855267ffffffffffffffff8c16600486019081526044860183905233606487018190526080602488019081528d5160848901528d51949c506001600160a01b039093169a5063d253eced99508d98508c97508b969095509093919260a49091019187019080838360005b8381101561060e5781810151838201526020016105f6565b50505050905090810190601f16801561063b5780820380516001836020036101000a031916815260200191505b5095505050505050602060405180830381600087803b15801561065d57600080fd5b505af1158015610671573d6000803e3d6000fd5b505050506040513d602081101561068757600080fd5b505115610702576001600160a01b0384166106a157600080fd5b600280546001600160a01b038681166001600160a01b0319831681179093556040805191909216808252602082019390935281517fd30bbf8c51d656e1f0bad4c64bc25c133cb2e626cf2791746b0f083b38ea3fdd929181900390910190a1505b5050505050565b6001600160a01b031660009081526020819052604090205460ff1690565b6060600180548060200260200160405190810160405280929190818152602001828054801561077f57602002820191906000526020600020905b81546001600160a01b03168152600190910190602001808311610761575b5050505050905090565b600061079482610709565b92915050565b60015460009082106107dd5760405162461bcd60e51b815260040180806020018281038252602581526020018061145d6025913960400191505060405180910390fd5b600182815481106107ea57fe5b6000918252602090912001546001600160a01b031692915050565b60006107948261079a565b6002546001600160a01b031681565b60025460408051629764fd60e61b815233600482015290516001600160a01b03909216916325d93f4091602480820192602092909190829003018186803b15801561086957600080fd5b505afa15801561087d573d6000803e3d6000fd5b505050506040513d602081101561089357600080fd5b50516108d05760405162461bcd60e51b81526004018080602001828103825260278152602001806114826027913960400191505060405180910390fd5b816040518060400160405280601181526020017018591917db5d5b1d1a57dd1c9d5cdd1959607a1b815250600080356001600160e01b03191660003660405160200180846001600160e01b0319166001600160e01b03191681526004018383808284376040805191909301818103601f1901825292839052805160209182012060025463d253eced60e01b855267ffffffffffffffff8c16600486019081526044860183905233606487018190526080602488019081528d5160848901528d51949c506001600160a01b039093169a5063d253eced99508d98508c97508b969095509093919260a49091019187019080838360005b838110156109dd5781810151838201526020016109c5565b50505050905090810190601f168015610a0a5780820380516001836020036101000a031916815260200191505b5095505050505050602060405180830381600087803b158015610a2c57600080fd5b505af1158015610a40573d6000803e3d6000fd5b505050506040513d6020811015610a5657600080fd5b5051156107025760005b8451811015610ae957610a85858281518110610a7857fe5b6020026020010151611305565b7f2c27eb7d728b178a557834abfbd27e757695f0ea1d14cd572f591f1cf94d92eb858281518110610ab257fe5b602002602001015160405180826001600160a01b03166001600160a01b0316815260200191505060405180910390a1600101610a60565b505050505050565b60015490565b6000610b01610af1565b905090565b60025460408051629764fd60e61b815233600482015290516001600160a01b03909216916325d93f4091602480820192602092909190829003018186803b158015610b5057600080fd5b505afa158015610b64573d6000803e3d6000fd5b505050506040513d6020811015610b7a57600080fd5b5051610bb75760405162461bcd60e51b81526004018080602001828103825260278152602001806114826027913960400191505060405180910390fd5b816040518060400160405280600e81526020016d1c995b5bdd9957dd1c9d5cdd195960921b815250600080356001600160e01b03191660003660405160200180846001600160e01b0319166001600160e01b03191681526004018383808284376040805191909301818103601f1901825292839052805160209182012060025463d253eced60e01b855267ffffffffffffffff8c16600486019081526044860183905233606487018190526080602488019081528d5160848901528d51949c506001600160a01b039093169a5063d253eced99508d98508c97508b969095509093919260a49091019187019080838360005b83811015610cc1578181015183820152602001610ca9565b50505050905090810190601f168015610cee5780820380516001836020036101000a031916815260200191505b5095505050505050602060405180830381600087803b158015610d1057600080fd5b505af1158015610d24573d6000803e3d6000fd5b505050506040513d6020811015610d3a57600080fd5b50511561070257610d4a84611391565b604080516001600160a01b038616815290517fd608480613e6362ec5a75ba9d27cec77b0f14e4ef1e63d3a7de338574add29d39181900360200190a15050505050565b60025460408051629764fd60e61b815233600482015290516001600160a01b03909216916325d93f4091602480820192602092909190829003018186803b158015610dd757600080fd5b505afa158015610deb573d6000803e3d6000fd5b505050506040513d6020811015610e0157600080fd5b5051610e3e5760405162461bcd60e51b81526004018080602001828103825260278152602001806114826027913960400191505060405180910390fd5b81604051806040016040528060148152602001731c995b5bdd9957db5d5b1d1a57dd1c9d5cdd195960621b815250600080356001600160e01b03191660003660405160200180846001600160e01b0319166001600160e01b03191681526004018383808284376040805191909301818103601f1901825292839052805160209182012060025463d253eced60e01b855267ffffffffffffffff8c16600486019081526044860183905233606487018190526080602488019081528d5160848901528d51949c506001600160a01b039093169a5063d253eced99508d98508c97508b969095509093919260a49091019187019080838360005b83811015610f4e578181015183820152602001610f36565b50505050905090810190601f168015610f7b5780820380516001836020036101000a031916815260200191505b5095505050505050602060405180830381600087803b158015610f9d57600080fd5b505af1158015610fb1573d6000803e3d6000fd5b505050506040513d6020811015610fc757600080fd5b5051156107025760005b8451811015610ae957610ff6858281518110610fe957fe5b6020026020010151611391565b7fd608480613e6362ec5a75ba9d27cec77b0f14e4ef1e63d3a7de338574add29d385828151811061102357fe5b602002602001015160405180826001600160a01b03166001600160a01b0316815260200191505060405180910390a1600101610fd1565b60025460408051629764fd60e61b815233600482015290516001600160a01b03909216916325d93f4091602480820192602092909190829003018186803b1580156110a457600080fd5b505afa1580156110b8573d6000803e3d6000fd5b505050506040513d60208110156110ce57600080fd5b505161110b5760405162461bcd60e51b81526004018080602001828103825260278152602001806114826027913960400191505060405180910390fd5b816040518060400160405280600b81526020016a18591917dd1c9d5cdd195960aa1b815250600080356001600160e01b03191660003660405160200180846001600160e01b0319166001600160e01b03191681526004018383808284376040805191909301818103601f1901825292839052805160209182012060025463d253eced60e01b855267ffffffffffffffff8c16600486019081526044860183905233606487018190526080602488019081528d5160848901528d51949c506001600160a01b039093169a5063d253eced99508d98508c97508b969095509093919260a49091019187019080838360005b838110156112125781810151838201526020016111fa565b50505050905090810190601f16801561123f5780820380516001836020036101000a031916815260200191505b5095505050505050602060405180830381600087803b15801561126157600080fd5b505af1158015611275573d6000803e3d6000fd5b505050506040513d602081101561128b57600080fd5b5051156107025761129b84611305565b604080516001600160a01b038616815290517f2c27eb7d728b178a557834abfbd27e757695f0ea1d14cd572f591f1cf94d92eb9181900360200190a15050505050565b600181815481106112eb57fe5b6000918252602090912001546001600160a01b0316905081565b6001600160a01b03811660009081526020819052604090205460ff161561132b5761138e565b6001600160a01b0381166000818152602081905260408120805460ff191660019081179091558054808201825591527fb10e2d527612073b26eecdfd717e6a320cf44b4afac2b0732d9fcbe2b7fa0cf60180546001600160a01b03191690911790555b50565b6001600160a01b03811660009081526020819052604090205460ff166113b65761138e565b6001600160a01b03811660008181526020818152604091829020805460ff19169055815163edefe12d60e01b8152600160048201526024810193909352905173__AddressArray__________________________9263edefe12d926044808301939192829003018186803b15801561142d57600080fd5b505af4158015611441573d6000803e3d6000fd5b505050506040513d602081101561145757600080fd5b50505056fe416464726573734c6973743a6765745f616464726573732c206f7574206f662072616e67656f6e6c792061207369676e65722063616e2063616c6c20696e204d756c7469536967546f6f6c73a265627a7a72305820206d614634a67f9eaa3cf1733d0324ecec512ade48966d0bcd7bc454bd98cf4564736f6c634300050a0032a265627a7a72305820ed42ae48495d23a5c96baf904f631d1dfbaf7fbac014a5388f3903b85f9f87ca64736f6c634300050a0032",
  "source": "pragma solidity >=0.4.21 <0.6.0;\n\nimport \"./utils/Arrays.sol\";\nimport \"./MultiSigTools.sol\";\n\ncontract AddressList{\n  using AddressArray for address[];\n  mapping(address => bool) private address_status;\n  address[] public addresses;\n\n  constructor() public{}\n\n  function get_all_addresses() public view returns(address[] memory){\n    return addresses;\n  }\n\n  function get_address(uint i) public view returns(address){\n    require(i < addresses.length, \"AddressList:get_address, out of range\");\n    return addresses[i];\n  }\n\n  function get_address_num() public view returns(uint){\n    return addresses.length;\n  }\n\n  function is_address_exist(address addr) public view returns(bool){\n    return address_status[addr];\n  }\n\n  function _add_address(address addr) internal{\n    if(address_status[addr]) return;\n    address_status[addr] = true;\n    addresses.push(addr);\n  }\n\n  function _remove_address(address addr) internal{\n    if(!address_status[addr]) return;\n    address_status[addr] = false;\n    addresses.remove(addr);\n  }\n\n  function _reset() internal{\n    for(uint i = 0; i < addresses.length; i++){\n      address_status[addresses[i]] = false;\n    }\n    delete addresses;\n  }\n}\n\ncontract TrustList is AddressList, MultiSigTools{\n\n  event AddTrust(address addr);\n  event RemoveTrust(address addr);\n\n  constructor(address[] memory _list, address _multisig) public MultiSigTools(_multisig){\n    for(uint i = 0; i < _list.length; i++){\n      _add_address(_list[i]);\n    }\n  }\n\n  function is_trusted(address addr) public view returns(bool){\n    return is_address_exist(addr);\n  }\n\n  function get_trusted(uint i) public view returns(address){\n    return get_address(i);\n  }\n\n  function get_trusted_num() public view returns(uint){\n    return get_address_num();\n  }\n\n  function add_trusted(uint64 id, address addr) public\n    only_signer is_majority_sig(id, \"add_trusted\"){\n    _add_address(addr);\n    emit AddTrust(addr);\n  }\n  function add_multi_trusted(uint64 id, address[] memory _list) public\n    only_signer is_majority_sig(id, \"add_multi_trusted\"){\n    for(uint i = 0; i < _list.length; i++){\n      _add_address(_list[i]);\n      emit AddTrust(_list[i]);\n    }\n  }\n\n  function remove_trusted(uint64 id, address addr) public\n    only_signer is_majority_sig(id, \"remove_trusted\"){\n    _remove_address(addr);\n    emit RemoveTrust(addr);\n  }\n\n  function remove_multi_trusted(uint64 id, address[] memory _list) public\n  only_signer is_majority_sig(id, \"remove_multi_trusted\"){\n    for(uint i = 0; i < _list.length; i++){\n      _remove_address(_list[i]);\n      emit RemoveTrust(_list[i]);\n    }\n  }\n}\n\ncontract TrustListFactory{\n  event NewTrustList(address addr, address[] list, address multisig);\n\n  function createTrustList(address[] memory _list, address _multisig) public returns(address){\n    TrustList tl = new TrustList(_list, _multisig);\n    emit NewTrustList(address(tl), _list, _multisig);\n    return address(tl);\n  }\n}\n\n",
  "sourcePath": "/Users/xuepeng/projects/gttoken-contract/contracts/AddressList.sol",
  "compiler": {
    "name": "solc",
    "version": "0.5.10+commit.5a6ea5b1.Emscripten.clang"
  },
  "schemaVersion": "3.0.11",
  "updatedAt": "2020-04-27T14:47:29.697Z",
  "devdoc": {
    "methods": {}
  },
  "userdoc": {
    "methods": {}
  }
}