{
  "contractName": "UserProfileFactory",
  "abi": [
    {
      "anonymous": false,
      "inputs": [
        {
          "indexed": false,
          "name": "addr",
          "type": "address"
        }
      ],
      "name": "NewUserProfileContract",
      "type": "event"
    },
    {
      "constant": false,
      "inputs": [
        {
          "name": "_multisig",
          "type": "address"
        }
      ],
      "name": "createUserProfile",
      "outputs": [
        {
          "name": "addr",
          "type": "address"
        }
      ],
      "payable": false,
      "stateMutability": "nonpayable",
      "type": "function"
    }
  ],
  "bytecode": "0x608060405234801561001057600080fd5b50612bb4806100206000396000f3fe608060405234801561001057600080fd5b506004361061002b5760003560e01c8063c50f359314610030575b600080fd5b6100566004803603602081101561004657600080fd5b50356001600160a01b0316610072565b604080516001600160a01b039092168252519081900360200190f35b60008082604051610082906100f6565b6001600160a01b03909116815260405190819003602001906000f0801580156100af573d6000803e3d6000fd5b50604080516001600160a01b038316815290519192507f0883d6b86ab9ce0c20aebb451db3fe4e55b489f42874be0157a7ac8a7e631162919081900360200190a192915050565b612a7c806101048339019056fe608060405234801561001057600080fd5b50604051612a7c380380612a7c8339818101604052602081101561003357600080fd5b5051806001600160a01b03811661004957600080fd5b600080546001600160a01b039092166001600160a01b0319909216919091178155600255506004805460ff191660011790556129f28061008a6000396000f3fe608060405234801561001057600080fd5b506004361061010b5760003560e01c80638b95cfca116100a2578063d00cbdee11610071578063d00cbdee14610960578063d553357d1461097a578063e746e50514610a1e578063f944f4c714610ac2578063ffd47ed514610aca5761010b565b80638b95cfca1461072f5780639f00390914610737578063b3645a9f14610912578063bb8f4ea8146109395761010b565b806310cb818c116100de57806310cb818c146104615780631959a002146104975780635353a2d8146106675780636ce5edff1461070b5761010b565b806301696b281461011057806301cda3ac146101c85780630c3129fe146103fb5780630e666e491461043b575b600080fd5b6101b46004803603602081101561012657600080fd5b810190602081018135600160201b81111561014057600080fd5b82018360208201111561015257600080fd5b803590602001918460018302840111600160201b8311171561017357600080fd5b91908080601f016020809104026020016040519081016040528093929190818152602001838380828437600092019190915250929550610ad2945050505050565b604080519115158252519081900360200190f35b6101b4600480360360808110156101de57600080fd5b810190602081018135600160201b8111156101f857600080fd5b82018360208201111561020a57600080fd5b803590602001918460018302840111600160201b8311171561022b57600080fd5b91908080601f0160208091040260200160405190810160405280939291908181526020018383808284376000920191909152509295949360208101935035915050600160201b81111561027d57600080fd5b82018360208201111561028f57600080fd5b803590602001918460018302840111600160201b831117156102b057600080fd5b91908080601f0160208091040260200160405190810160405280939291908181526020018383808284376000920191909152509295949360208101935035915050600160201b81111561030257600080fd5b82018360208201111561031457600080fd5b803590602001918460018302840111600160201b8311171561033557600080fd5b91908080601f0160208091040260200160405190810160405280939291908181526020018383808284376000920191909152509295949360208101935035915050600160201b81111561038757600080fd5b82018360208201111561039957600080fd5b803590602001918460018302840111600160201b831117156103ba57600080fd5b91908080601f016020809104026020016040519081016040528093929190818152602001838380828437600092019190915250929550610d5a945050505050565b6104396004803603606081101561041157600080fd5b5067ffffffffffffffff813516906001600160a01b0360208201358116916040013516611063565b005b6101b46004803603602081101561045157600080fd5b50356001600160a01b03166112b3565b6104396004803603604081101561047757600080fd5b50803567ffffffffffffffff1690602001356001600160a01b03166112d1565b6104bd600480360360208110156104ad57600080fd5b50356001600160a01b031661158d565b6040518080602001806020018060200180602001858103855289818151815260200191508051906020019080838360005b838110156105065781810151838201526020016104ee565b50505050905090810190601f1680156105335780820380516001836020036101000a031916815260200191505b5085810384528851815288516020918201918a019080838360005b8381101561056657818101518382015260200161054e565b50505050905090810190601f1680156105935780820380516001836020036101000a031916815260200191505b50858103835287518152875160209182019189019080838360005b838110156105c65781810151838201526020016105ae565b50505050905090810190601f1680156105f35780820380516001836020036101000a031916815260200191505b50858103825286518152865160209182019188019080838360005b8381101561062657818101518382015260200161060e565b50505050905090810190601f1680156106535780820380516001836020036101000a031916815260200191505b509850505050505050505060405180910390f35b6101b46004803603602081101561067d57600080fd5b810190602081018135600160201b81111561069757600080fd5b8201836020820111156106a957600080fd5b803590602001918460018302840111600160201b831117156106ca57600080fd5b91908080601f016020809104026020016040519081016040528093929190818152602001838380828437600092019190915250929550611861945050505050565b610713611a3d565b604080516001600160a01b039092168252519081900360200190f35b6101b4611a4c565b61075d6004803603602081101561074d57600080fd5b50356001600160a01b0316611a55565b604051808615151515815260200180602001806020018060200180602001858103855289818151815260200191508051906020019080838360005b838110156107b0578181015183820152602001610798565b50505050905090810190601f1680156107dd5780820380516001836020036101000a031916815260200191505b5085810384528851815288516020918201918a019080838360005b838110156108105781810151838201526020016107f8565b50505050905090810190601f16801561083d5780820380516001836020036101000a031916815260200191505b50858103835287518152875160209182019189019080838360005b83811015610870578181015183820152602001610858565b50505050905090810190601f16801561089d5780820380516001836020036101000a031916815260200191505b50858103825286518152865160209182019188019080838360005b838110156108d05781810151838201526020016108b8565b50505050905090810190601f1680156108fd5780820380516001836020036101000a031916815260200191505b50995050505050505050505060405180910390f35b6104396004803603602081101561092857600080fd5b503567ffffffffffffffff16611cb4565b6104396004803603602081101561094f57600080fd5b503567ffffffffffffffff16611f2a565b6109686121a4565b60408051918252519081900360200190f35b6101b46004803603602081101561099057600080fd5b810190602081018135600160201b8111156109aa57600080fd5b8201836020820111156109bc57600080fd5b803590602001918460018302840111600160201b831117156109dd57600080fd5b91908080601f0160208091040260200160405190810160405280939291908181526020018383808284376000920191909152509295506121aa945050505050565b6101b460048036036020811015610a3457600080fd5b810190602081018135600160201b811115610a4e57600080fd5b820183602082011115610a6057600080fd5b803590602001918460018302840111600160201b83111715610a8157600080fd5b91908080601f016020809104026020016040519081016040528093929190818152602001838380828437600092019190915250929550612385945050505050565b6101b4612563565b610968612654565b60045460009060ff16610b1d576040805162461bcd60e51b815260206004820152600e60248201526d6e6f74206f6e207365727669636560901b604482015290519081900360640190fd5b3360009081526001602052604090205460ff16610b6d576040805162461bcd60e51b81526020600482015260096024820152681b9bdd08195e1a5cdd60ba1b604482015290519081900360640190fd5b336000908152600160208181526040928390206003810180548551600295821615610100026000190190911694909404601f8101849004840285018401909552848452909360609392830182828015610c075780601f10610bdc57610100808354040283529160200191610c07565b820191906000526020600020905b815481529060010190602001808311610bea57829003601f168201915b50508751939450610c25936003870193506020890192509050612897565b5060008051602061297783398151915233828660405180846001600160a01b03166001600160a01b03168152602001806020018060200180602001848103845260068152602001806530bb30ba30b960d11b815250602001848103835286818151815260200191508051906020019080838360005b83811015610cb2578181015183820152602001610c9a565b50505050905090810190601f168015610cdf5780820380516001836020036101000a031916815260200191505b50848103825285518152855160209182019187019080838360005b83811015610d12578181015183820152602001610cfa565b50505050905090810190601f168015610d3f5780820380516001836020036101000a031916815260200191505b50965050505050505060405180910390a15060019392505050565b60045460009060ff16610da5576040805162461bcd60e51b815260206004820152600e60248201526d6e6f74206f6e207365727669636560901b604482015290519081900360640190fd5b3360009081526001602052604090205460ff1615610dfa576040805162461bcd60e51b815260206004820152600d60248201526c185b1c9958591e48195e1a5cdd609a1b604482015290519081900360640190fd5b33600090815260016020818152604090922087519092610e209284019190890190612897565b508451610e369060028301906020880190612897565b508351610e4c9060038301906020870190612897565b508251610e629060048301906020860190612897565b50805460ff19166001178155604080513380825260a060208084018281528b51928501929092528a517f8e97dd8249e19f37e9918f3d7c47e108ce39787d31b4d01957128a1dbbe011cd9593948c948c948c948c9491928401916060850191608086019160c08701918b019080838360005b83811015610eec578181015183820152602001610ed4565b50505050905090810190601f168015610f195780820380516001836020036101000a031916815260200191505b5085810384528851815288516020918201918a019080838360005b83811015610f4c578181015183820152602001610f34565b50505050905090810190601f168015610f795780820380516001836020036101000a031916815260200191505b50858103835287518152875160209182019189019080838360005b83811015610fac578181015183820152602001610f94565b50505050905090810190601f168015610fd95780820380516001836020036101000a031916815260200191505b50858103825286518152865160209182019188019080838360005b8381101561100c578181015183820152602001610ff4565b50505050905090810190601f1680156110395780820380516001836020036101000a031916815260200191505b50995050505050505050505060405180910390a15050600280546001908101909155949350505050565b60005460408051629764fd60e61b815233600482015290516001600160a01b03909216916325d93f4091602480820192602092909190829003018186803b1580156110ad57600080fd5b505afa1580156110c1573d6000803e3d6000fd5b505050506040513d60208110156110d757600080fd5b50516111145760405162461bcd60e51b81526004018080602001828103825260278152602001806129976027913960400191505060405180910390fd5b826040518060400160405280600e81526020016d636c61696d537464546f6b656e7360901b815250600080356001600160e01b03191660003660405160200180846001600160e01b0319166001600160e01b03191681526004018383808284376040805191909301818103601f190182529283905280516020918201206000805463d253eced60e01b865267ffffffffffffffff8d16600487019081526044870184905233606488018190526080602489019081528e5160848a01528e51959d506001600160a01b039093169b5063d253eced9a508e99508d98508c979096509094919360a490910192918801918190849084905b83811015611221578181015183820152602001611209565b50505050905090810190601f16801561124e5780820380516001836020036101000a031916815260200191505b5095505050505050602060405180830381600087803b15801561127057600080fd5b505af1158015611284573d6000803e3d6000fd5b505050506040513d602081101561129a57600080fd5b5051156112ab576112ab858561265a565b505050505050565b6001600160a01b031660009081526001602052604090205460ff1690565b60005460408051629764fd60e61b815233600482015290516001600160a01b03909216916325d93f4091602480820192602092909190829003018186803b15801561131b57600080fd5b505afa15801561132f573d6000803e3d6000fd5b505050506040513d602081101561134557600080fd5b50516113825760405162461bcd60e51b81526004018080602001828103825260278152602001806129976027913960400191505060405180910390fd5b81604051806040016040528060118152602001707472616e736665725f6d756c746973696760781b815250600080356001600160e01b03191660003660405160200180846001600160e01b0319166001600160e01b03191681526004018383808284376040805191909301818103601f190182529283905280516020918201206000805463d253eced60e01b865267ffffffffffffffff8d16600487019081526044870184905233606488018190526080602489019081528e5160848a01528e51959d506001600160a01b039093169b5063d253eced9a508e99508d98508c979096509094919360a490910192918801918190849084905b8381101561149257818101518382015260200161147a565b50505050905090810190601f1680156114bf5780820380516001836020036101000a031916815260200191505b5095505050505050602060405180830381600087803b1580156114e157600080fd5b505af11580156114f5573d6000803e3d6000fd5b505050506040513d602081101561150b57600080fd5b505115611586576001600160a01b03841661152557600080fd5b600080546001600160a01b038681166001600160a01b0319831681179093556040805191909216808252602082019390935281517fd30bbf8c51d656e1f0bad4c64bc25c133cb2e626cf2791746b0f083b38ea3fdd929181900390910190a1505b5050505050565b6001600160a01b03811660009081526001602052604090205460609081908190819060ff166115ef576040805162461bcd60e51b81526020600482015260096024820152681b9bdd08195e1a5cdd60ba1b604482015290519081900360640190fd5b6001600160a01b038516600090815260016020818152604092839020808301805485516002958216156101000260001901909116859004601f8101859004850282018501909652858152919490938501926003860192600487019290918691908301828280156116a05780601f10611675576101008083540402835291602001916116a0565b820191906000526020600020905b81548152906001019060200180831161168357829003601f168201915b5050865460408051602060026001851615610100026000190190941693909304601f81018490048402820184019092528181529599508894509250840190508282801561172e5780601f106117035761010080835404028352916020019161172e565b820191906000526020600020905b81548152906001019060200180831161171157829003601f168201915b5050855460408051602060026001851615610100026000190190941693909304601f8101849004840282018401909252818152959850879450925084019050828280156117bc5780601f10611791576101008083540402835291602001916117bc565b820191906000526020600020905b81548152906001019060200180831161179f57829003601f168201915b5050845460408051602060026001851615610100026000190190941693909304601f81018490048402820184019092528181529597508694509250840190508282801561184a5780601f1061181f5761010080835404028352916020019161184a565b820191906000526020600020905b81548152906001019060200180831161182d57829003601f168201915b505050505090509450945094509450509193509193565b60045460009060ff166118ac576040805162461bcd60e51b815260206004820152600e60248201526d6e6f74206f6e207365727669636560901b604482015290519081900360640190fd5b3360009081526001602052604090205460ff166118fc576040805162461bcd60e51b81526020600482015260096024820152681b9bdd08195e1a5cdd60ba1b604482015290519081900360640190fd5b3360009081526001602081815260409283902080830180548551600295821615610100026000190190911694909404601f81018490048402850184019095528484529093606093928301828280156119955780601f1061196a57610100808354040283529160200191611995565b820191906000526020600020905b81548152906001019060200180831161197857829003601f168201915b505087519394506119b3936001870193506020890192509050612897565b5060008051602061297783398151915233828660405180846001600160a01b03166001600160a01b0316815260200180602001806020018060200184810384526004815260200180636e616d6560e01b8152506020018481038352868181518152602001915080519060200190808383600083811015610cb2578181015183820152602001610c9a565b6000546001600160a01b031681565b60045460ff1681565b600160208181526000928352604092839020805481840180548651600261010097831615979097026000190190911695909504601f810185900485028601850190965285855260ff90911694919392909190830182828015611af85780601f10611acd57610100808354040283529160200191611af8565b820191906000526020600020905b815481529060010190602001808311611adb57829003601f168201915b50505060028085018054604080516020601f6000196101006001871615020190941695909504928301859004850281018501909152818152959695945090925090830182828015611b8a5780601f10611b5f57610100808354040283529160200191611b8a565b820191906000526020600020905b815481529060010190602001808311611b6d57829003601f168201915b5050505060038301805460408051602060026001851615610100026000190190941693909304601f8101849004840282018401909252818152949594935090830182828015611c1a5780601f10611bef57610100808354040283529160200191611c1a565b820191906000526020600020905b815481529060010190602001808311611bfd57829003601f168201915b5050505060048301805460408051602060026001851615610100026000190190941693909304601f8101849004840282018401909252818152949594935090830182828015611caa5780601f10611c7f57610100808354040283529160200191611caa565b820191906000526020600020905b815481529060010190602001808311611c8d57829003601f168201915b5050505050905085565b60005460408051629764fd60e61b815233600482015290516001600160a01b03909216916325d93f4091602480820192602092909190829003018186803b158015611cfe57600080fd5b505afa158015611d12573d6000803e3d6000fd5b505050506040513d6020811015611d2857600080fd5b5051611d655760405162461bcd60e51b81526004018080602001828103825260278152602001806129976027913960400191505060405180910390fd5b806040518060400160405280600c81526020016b70617573655365727669636560a01b815250600080356001600160e01b03191660003660405160200180846001600160e01b0319166001600160e01b03191681526004018383808284376040805191909301818103601f190182529283905280516020918201206000805463d253eced60e01b865267ffffffffffffffff8d16600487019081526044870184905233606488018190526080602489019081528e5160848a01528e51959d506001600160a01b039093169b5063d253eced9a508e99508d98508c979096509094919360a490910192918801918190849084905b83811015611e70578181015183820152602001611e58565b50505050905090810190601f168015611e9d5780820380516001836020036101000a031916815260200191505b5095505050505050602060405180830381600087803b158015611ebf57600080fd5b505af1158015611ed3573d6000803e3d6000fd5b505050506040513d6020811015611ee957600080fd5b505115611f24576004805460ff191690556040517f6985a02210a168e66602d3235cb6db0e70f92b3ba4d376a33c0f3d9434bff62590600090a15b50505050565b60005460408051629764fd60e61b815233600482015290516001600160a01b03909216916325d93f4091602480820192602092909190829003018186803b158015611f7457600080fd5b505afa158015611f88573d6000803e3d6000fd5b505050506040513d6020811015611f9e57600080fd5b5051611fdb5760405162461bcd60e51b81526004018080602001828103825260278152602001806129976027913960400191505060405180910390fd5b806040518060400160405280600e81526020016d756e70617573655365727669636560901b815250600080356001600160e01b03191660003660405160200180846001600160e01b0319166001600160e01b03191681526004018383808284376040805191909301818103601f190182529283905280516020918201206000805463d253eced60e01b865267ffffffffffffffff8d16600487019081526044870184905233606488018190526080602489019081528e5160848a01528e51959d506001600160a01b039093169b5063d253eced9a508e99508d98508c979096509094919360a490910192918801918190849084905b838110156120e85781810151838201526020016120d0565b50505050905090810190601f1680156121155780820380516001836020036101000a031916815260200191505b5095505050505050602060405180830381600087803b15801561213757600080fd5b505af115801561214b573d6000803e3d6000fd5b505050506040513d602081101561216157600080fd5b505115611f24576004805460ff191660011790556040517f7805862f689e2f13df9f062ff482ad3ad112aca9e0847911ed832e158c525b3390600090a150505050565b60025481565b60045460009060ff166121f5576040805162461bcd60e51b815260206004820152600e60248201526d6e6f74206f6e207365727669636560901b604482015290519081900360640190fd5b3360009081526001602052604090205460ff16612245576040805162461bcd60e51b81526020600482015260096024820152681b9bdd08195e1a5cdd60ba1b604482015290519081900360640190fd5b336000908152600160208181526040928390206002808201805486519581161561010002600019011691909104601f81018490048402850184019095528484529093606093928301828280156122dc5780601f106122b1576101008083540402835291602001916122dc565b820191906000526020600020905b8154815290600101906020018083116122bf57829003601f168201915b505087519394506122fa936002870193506020890192509050612897565b5060008051602061297783398151915233828660405180846001600160a01b03166001600160a01b031681526020018060200180602001806020018481038452600581526020018064195b585a5b60da1b8152506020018481038352868181518152602001915080519060200190808383600083811015610cb2578181015183820152602001610c9a565b60045460009060ff166123d0576040805162461bcd60e51b815260206004820152600e60248201526d6e6f74206f6e207365727669636560901b604482015290519081900360640190fd5b3360009081526001602052604090205460ff16612420576040805162461bcd60e51b81526020600482015260096024820152681b9bdd08195e1a5cdd60ba1b604482015290519081900360640190fd5b336000908152600160208181526040928390206004810180548551600295821615610100026000190190911694909404601f81018490048402850184019095528484529093606093928301828280156124ba5780601f1061248f576101008083540402835291602001916124ba565b820191906000526020600020905b81548152906001019060200180831161249d57829003601f168201915b505087519394506124d8936004870193506020890192509050612897565b5060008051602061297783398151915233828660405180846001600160a01b03166001600160a01b031681526020018060200180602001806020018481038452600581526020018064696e74726f60d81b8152506020018481038352868181518152602001915080519060200190808383600083811015610cb2578181015183820152602001610c9a565b3360009081526001602052604081205460ff166125b3576040805162461bcd60e51b81526020600482015260096024820152681b9bdd08195e1a5cdd60ba1b604482015290519081900360640190fd5b6040805133815290517f0ad8e54ac59bf2d8a7a1474c1af503b593553cf4fcaaffdef04ab5249f89762b9181900360200190a13360009081526001602081905260408220805460ff19168155919061260d90830182612915565b61261b600283016000612915565b612629600383016000612915565b612637600483016000612915565b505060028054600019019055506003805460019081019091555b90565b60035481565b6001600160a01b0382166126a4576040516001600160a01b03821690303180156108fc02916000818181858888f1935050505015801561269e573d6000803e3d6000fd5b50612893565b604080516370a0823160e01b8152306004820152905183916000916001600160a01b038416916370a0823191602480830192602092919082900301818787803b1580156126f057600080fd5b505af1158015612704573d6000803e3d6000fd5b505050506040513d602081101561271a57600080fd5b5051604080516001600160a01b038681166024830152604480830185905283518084039091018152606490920183526020820180516001600160e01b031663a9059cbb60e01b178152925182519495506000949189169390918291908083835b602083106127995780518252601f19909201916020918201910161277a565b6001836020036101000a0380198251168184511680821785525050505050509050019150506000604051808303816000865af19150503d80600081146127fb576040519150601f19603f3d011682016040523d82523d6000602084013e612800565b606091505b5050905080612844576040805162461bcd60e51b815260206004820152600b60248201526a18d85b1b0819985a5b195960aa1b604482015290519081900360640190fd5b836001600160a01b0316856001600160a01b03167ff931edb47c50b4b4104c187b5814a9aef5f709e17e2ecf9617e860cacade929c846040518082815260200191505060405180910390a35050505b5050565b828054600181600116156101000203166002900490600052602060002090601f016020900481019282601f106128d857805160ff1916838001178555612905565b82800160010185558215612905579182015b828111156129055782518255916020019190600101906128ea565b5061291192915061295c565b5090565b50805460018160011615610100020316600290046000825580601f1061293b5750612959565b601f016020900490600052602060002090810190612959919061295c565b50565b61265191905b80821115612911576000815560010161296256fe528d2adcef37a000533a6aebbfce9d307a2fa9eee3e3806ec93a48cffc54ea9a6f6e6c792061207369676e65722063616e2063616c6c20696e204d756c7469536967546f6f6c73a265627a7a7230582033e819b9093092c0dc070db2ff6fcda6b9d5137e231d055f9f000a9a99c8ad4d64736f6c634300050a0032a265627a7a723058207a5789dcb4314cb418df164f82b52a2acbac0b78d845f1419124932b140896cd64736f6c634300050a0032",
  "source": "pragma solidity >=0.4.21 <0.6.0;\n\nimport \"../MultiSigTools.sol\";\nimport \"../utils/TokenClaimer.sol\";\n\ncontract UserProfile is MultiSigTools, TokenClaimer{\n  struct UProfileData{\n    bool exists;\n    string name;\n    string email;\n    string avatar;\n    string intro;\n  }\n\n  mapping (address => UProfileData) public user_data;\n  uint public total_user_number;\n  uint public removed_user_number;\n\n  bool public on_service;\n\n  event AddUser(address _addr, string _name, string _email, string _avatar, string _intro);\n  event RemoveUser(address _addr);\n  event ChangeItem(address _addr, string _item, string _old, string _new);\n  event Pause();\n  event Unpause();\n\n\n  constructor(address _multisig) MultiSigTools(_multisig) public {\n    total_user_number = 0;\n    on_service = true;\n  }\n\n  function addUser(string memory _name,\n                  string memory _email,\n                  string memory _avatar,\n                  string memory _intro) public returns(bool){\n    require(on_service, \"not on service\");\n    require(!user_data[msg.sender].exists, \"already exist\");\n\n    UProfileData storage upd = user_data[msg.sender];\n    upd.name = _name;\n    upd.email = _email;\n    upd.avatar = _avatar;\n    upd.intro = _intro;\n    upd.exists = true;\n\n    emit AddUser(msg.sender, _name, _email, _avatar, _intro);\n    total_user_number += 1;\n    return true;\n  }\n\n  function removeUser() public returns(bool){\n    require(user_data[msg.sender].exists, \"not exist\");\n    emit RemoveUser(msg.sender);\n    delete user_data[msg.sender];\n    total_user_number -= 1;\n    removed_user_number += 1;\n    return true;\n  }\n\n  function changeName(string memory _name) public returns(bool){\n    require(on_service, \"not on service\");\n    require(user_data[msg.sender].exists, \"not exist\");\n    UProfileData storage upd = user_data[msg.sender];\n    string memory oldName = upd.name;\n    upd.name = _name;\n    emit ChangeItem(msg.sender, \"name\", oldName, _name);\n    return true;\n  }\n\n  function changeEmail(string memory _email) public returns(bool){\n    require(on_service, \"not on service\");\n    require(user_data[msg.sender].exists, \"not exist\");\n\n    UProfileData storage upd = user_data[msg.sender];\n    string memory oldEmail = upd.email;\n    upd.email= _email;\n    emit ChangeItem(msg.sender, \"email\", oldEmail, _email);\n    return true;\n  }\n  function changeAvatar(string memory _avatar) public returns(bool){\n    require(on_service, \"not on service\");\n    require(user_data[msg.sender].exists, \"not exist\");\n\n    UProfileData storage upd = user_data[msg.sender];\n    string memory oldAvatar = upd.avatar;\n    upd.avatar = _avatar;\n    emit ChangeItem(msg.sender, \"avatar\", oldAvatar, _avatar);\n    return true;\n  }\n  function changeIntro(string memory _intro) public returns(bool){\n    require(on_service, \"not on service\");\n    require(user_data[msg.sender].exists, \"not exist\");\n\n    UProfileData storage upd = user_data[msg.sender];\n    string memory oldIntro = upd.intro;\n    upd.intro= _intro;\n    emit ChangeItem(msg.sender, \"intro\", oldIntro, _intro);\n    return true;\n  }\n\n  function userExists(address _addr) public view returns(bool){\n    return user_data[_addr].exists;\n  }\n  function userInfo(address _addr) public view returns(string memory name, string memory email, string memory avatar, string memory intro){\n    require(user_data[_addr].exists, \"not exist\");\n    UProfileData storage upd = user_data[_addr];\n    return (upd.name, upd.email, upd.avatar, upd.intro);\n  }\n\n  function claimStdTokens(uint64 id, address _token, address payable to) public only_signer is_majority_sig(id, \"claimStdTokens\"){\n    _claimStdTokens(_token, to);\n  }\n  function pauseService(uint64 id) public only_signer is_majority_sig(id, \"pauseService\"){\n    on_service = false;\n    emit Pause();\n  }\n  function unpauseService(uint64 id) public only_signer is_majority_sig(id, \"unpauseService\"){\n    on_service = true;\n    emit Unpause();\n  }\n}\n\ncontract UserProfileFactory{\n  event NewUserProfileContract(address addr);\n\n  function createUserProfile(address _multisig) public returns(address addr){\n    UserProfile up = new UserProfile(_multisig);\n    emit NewUserProfileContract(address(up));\n    return address(up);\n  }\n}\n",
  "sourcePath": "/Users/xuepeng/projects/gttoken-contract/contracts/cooperation/UserProfile.sol",
  "compiler": {
    "name": "solc",
    "version": "0.5.10+commit.5a6ea5b1.Emscripten.clang"
  },
  "schemaVersion": "3.0.11",
  "updatedAt": "2020-04-27T14:47:29.842Z",
  "devdoc": {
    "methods": {}
  },
  "userdoc": {
    "methods": {}
  }
}